{
    "_format": "hh-sol-artifact-1",
    "contractName": "Domains",
    "sourceName": "contracts/Domains.sol",
    "abi": [
        {
            "inputs": [
                {
                    "internalType": "string",
                    "name": "_tld",
                    "type": "string"
                }
            ],
            "stateMutability": "payable",
            "type": "constructor"
        },
        {
            "inputs": [],
            "name": "AlreadyRegistered",
            "type": "error"
        },
        {
            "inputs": [
                {
                    "internalType": "string",
                    "name": "name",
                    "type": "string"
                }
            ],
            "name": "InvalidName",
            "type": "error"
        },
        {
            "inputs": [],
            "name": "Unauthorized",
            "type": "error"
        },
        {
            "anonymous": false,
            "inputs": [
                {
                    "indexed": true,
                    "internalType": "address",
                    "name": "owner",
                    "type": "address"
                },
                {
                    "indexed": true,
                    "internalType": "address",
                    "name": "approved",
                    "type": "address"
                },
                {
                    "indexed": true,
                    "internalType": "uint256",
                    "name": "tokenId",
                    "type": "uint256"
                }
            ],
            "name": "Approval",
            "type": "event"
        },
        {
            "anonymous": false,
            "inputs": [
                {
                    "indexed": true,
                    "internalType": "address",
                    "name": "owner",
                    "type": "address"
                },
                {
                    "indexed": true,
                    "internalType": "address",
                    "name": "operator",
                    "type": "address"
                },
                {
                    "indexed": false,
                    "internalType": "bool",
                    "name": "approved",
                    "type": "bool"
                }
            ],
            "name": "ApprovalForAll",
            "type": "event"
        },
        {
            "anonymous": false,
            "inputs": [
                {
                    "indexed": true,
                    "internalType": "address",
                    "name": "from",
                    "type": "address"
                },
                {
                    "indexed": true,
                    "internalType": "address",
                    "name": "to",
                    "type": "address"
                },
                {
                    "indexed": true,
                    "internalType": "uint256",
                    "name": "tokenId",
                    "type": "uint256"
                }
            ],
            "name": "Transfer",
            "type": "event"
        },
        {
            "inputs": [
                {
                    "internalType": "address",
                    "name": "to",
                    "type": "address"
                },
                {
                    "internalType": "uint256",
                    "name": "tokenId",
                    "type": "uint256"
                }
            ],
            "name": "approve",
            "outputs": [],
            "stateMutability": "nonpayable",
            "type": "function"
        },
        {
            "inputs": [
                {
                    "internalType": "address",
                    "name": "owner",
                    "type": "address"
                }
            ],
            "name": "balanceOf",
            "outputs": [
                {
                    "internalType": "uint256",
                    "name": "",
                    "type": "uint256"
                }
            ],
            "stateMutability": "view",
            "type": "function"
        },
        {
            "inputs": [
                {
                    "internalType": "string",
                    "name": "",
                    "type": "string"
                }
            ],
            "name": "domains",
            "outputs": [
                {
                    "internalType": "address",
                    "name": "",
                    "type": "address"
                }
            ],
            "stateMutability": "view",
            "type": "function"
        },
        {
            "inputs": [
                {
                    "internalType": "string",
                    "name": "name",
                    "type": "string"
                }
            ],
            "name": "getAddress",
            "outputs": [
                {
                    "internalType": "address",
                    "name": "",
                    "type": "address"
                }
            ],
            "stateMutability": "view",
            "type": "function"
        },
        {
            "inputs": [],
            "name": "getAllNames",
            "outputs": [
                {
                    "internalType": "string[]",
                    "name": "",
                    "type": "string[]"
                }
            ],
            "stateMutability": "view",
            "type": "function"
        },
        {
            "inputs": [
                {
                    "internalType": "uint256",
                    "name": "tokenId",
                    "type": "uint256"
                }
            ],
            "name": "getApproved",
            "outputs": [
                {
                    "internalType": "address",
                    "name": "",
                    "type": "address"
                }
            ],
            "stateMutability": "view",
            "type": "function"
        },
        {
            "inputs": [
                {
                    "internalType": "string",
                    "name": "name",
                    "type": "string"
                }
            ],
            "name": "getRecord",
            "outputs": [
                {
                    "internalType": "string",
                    "name": "",
                    "type": "string"
                }
            ],
            "stateMutability": "view",
            "type": "function"
        },
        {
            "inputs": [
                {
                    "internalType": "address",
                    "name": "owner",
                    "type": "address"
                },
                {
                    "internalType": "address",
                    "name": "operator",
                    "type": "address"
                }
            ],
            "name": "isApprovedForAll",
            "outputs": [
                {
                    "internalType": "bool",
                    "name": "",
                    "type": "bool"
                }
            ],
            "stateMutability": "view",
            "type": "function"
        },
        {
            "inputs": [],
            "name": "isOwner",
            "outputs": [
                {
                    "internalType": "bool",
                    "name": "",
                    "type": "bool"
                }
            ],
            "stateMutability": "view",
            "type": "function"
        },
        {
            "inputs": [
                {
                    "internalType": "string",
                    "name": "name",
                    "type": "string"
                }
            ],
            "name": "isValid",
            "outputs": [
                {
                    "internalType": "bool",
                    "name": "",
                    "type": "bool"
                }
            ],
            "stateMutability": "view",
            "type": "function"
        },
        {
            "inputs": [],
            "name": "name",
            "outputs": [
                {
                    "internalType": "string",
                    "name": "",
                    "type": "string"
                }
            ],
            "stateMutability": "view",
            "type": "function"
        },
        {
            "inputs": [
                {
                    "internalType": "uint256",
                    "name": "",
                    "type": "uint256"
                }
            ],
            "name": "names",
            "outputs": [
                {
                    "internalType": "string",
                    "name": "",
                    "type": "string"
                }
            ],
            "stateMutability": "view",
            "type": "function"
        },
        {
            "inputs": [],
            "name": "owner",
            "outputs": [
                {
                    "internalType": "address payable",
                    "name": "",
                    "type": "address"
                }
            ],
            "stateMutability": "view",
            "type": "function"
        },
        {
            "inputs": [
                {
                    "internalType": "uint256",
                    "name": "tokenId",
                    "type": "uint256"
                }
            ],
            "name": "ownerOf",
            "outputs": [
                {
                    "internalType": "address",
                    "name": "",
                    "type": "address"
                }
            ],
            "stateMutability": "view",
            "type": "function"
        },
        {
            "inputs": [
                {
                    "internalType": "string",
                    "name": "name",
                    "type": "string"
                }
            ],
            "name": "price",
            "outputs": [
                {
                    "internalType": "uint256",
                    "name": "",
                    "type": "uint256"
                }
            ],
            "stateMutability": "pure",
            "type": "function"
        },
        {
            "inputs": [
                {
                    "internalType": "string",
                    "name": "",
                    "type": "string"
                }
            ],
            "name": "records",
            "outputs": [
                {
                    "internalType": "string",
                    "name": "",
                    "type": "string"
                }
            ],
            "stateMutability": "view",
            "type": "function"
        },
        {
            "inputs": [
                {
                    "internalType": "string",
                    "name": "name",
                    "type": "string"
                }
            ],
            "name": "register",
            "outputs": [],
            "stateMutability": "payable",
            "type": "function"
        },
        {
            "inputs": [
                {
                    "internalType": "address",
                    "name": "from",
                    "type": "address"
                },
                {
                    "internalType": "address",
                    "name": "to",
                    "type": "address"
                },
                {
                    "internalType": "uint256",
                    "name": "tokenId",
                    "type": "uint256"
                }
            ],
            "name": "safeTransferFrom",
            "outputs": [],
            "stateMutability": "nonpayable",
            "type": "function"
        },
        {
            "inputs": [
                {
                    "internalType": "address",
                    "name": "from",
                    "type": "address"
                },
                {
                    "internalType": "address",
                    "name": "to",
                    "type": "address"
                },
                {
                    "internalType": "uint256",
                    "name": "tokenId",
                    "type": "uint256"
                },
                {
                    "internalType": "bytes",
                    "name": "_data",
                    "type": "bytes"
                }
            ],
            "name": "safeTransferFrom",
            "outputs": [],
            "stateMutability": "nonpayable",
            "type": "function"
        },
        {
            "inputs": [
                {
                    "internalType": "address",
                    "name": "operator",
                    "type": "address"
                },
                {
                    "internalType": "bool",
                    "name": "approved",
                    "type": "bool"
                }
            ],
            "name": "setApprovalForAll",
            "outputs": [],
            "stateMutability": "nonpayable",
            "type": "function"
        },
        {
            "inputs": [
                {
                    "internalType": "string",
                    "name": "name",
                    "type": "string"
                },
                {
                    "internalType": "string",
                    "name": "record",
                    "type": "string"
                }
            ],
            "name": "setRecord",
            "outputs": [],
            "stateMutability": "nonpayable",
            "type": "function"
        },
        {
            "inputs": [
                {
                    "internalType": "bytes4",
                    "name": "interfaceId",
                    "type": "bytes4"
                }
            ],
            "name": "supportsInterface",
            "outputs": [
                {
                    "internalType": "bool",
                    "name": "",
                    "type": "bool"
                }
            ],
            "stateMutability": "view",
            "type": "function"
        },
        {
            "inputs": [],
            "name": "symbol",
            "outputs": [
                {
                    "internalType": "string",
                    "name": "",
                    "type": "string"
                }
            ],
            "stateMutability": "view",
            "type": "function"
        },
        {
            "inputs": [],
            "name": "tld",
            "outputs": [
                {
                    "internalType": "string",
                    "name": "",
                    "type": "string"
                }
            ],
            "stateMutability": "view",
            "type": "function"
        },
        {
            "inputs": [
                {
                    "internalType": "uint256",
                    "name": "tokenId",
                    "type": "uint256"
                }
            ],
            "name": "tokenURI",
            "outputs": [
                {
                    "internalType": "string",
                    "name": "",
                    "type": "string"
                }
            ],
            "stateMutability": "view",
            "type": "function"
        },
        {
            "inputs": [
                {
                    "internalType": "address",
                    "name": "from",
                    "type": "address"
                },
                {
                    "internalType": "address",
                    "name": "to",
                    "type": "address"
                },
                {
                    "internalType": "uint256",
                    "name": "tokenId",
                    "type": "uint256"
                }
            ],
            "name": "transferFrom",
            "outputs": [],
            "stateMutability": "nonpayable",
            "type": "function"
        },
        {
            "inputs": [],
            "name": "withdraw",
            "outputs": [],
            "stateMutability": "nonpayable",
            "type": "function"
        }
    ],
    "bytecode": "0x6080604052604051806108a0016040528061086b815260200162004bbe61086b9139600d908051906020019062000038929190620001ad565b506040518060400160405280600d81526020017f3c2f746578743e3c2f7376673e00000000000000000000000000000000000000815250600e908051906020019062000086929190620001ad565b5060405162005429380380620054298339818101604052810190620000ac9190620003fa565b6040518060400160405280601381526020017f47696e676572204e616d652053657276696365000000000000000000000000008152506040518060400160405280600381526020017f4747530000000000000000000000000000000000000000000000000000000000815250816000908051906020019062000130929190620001ad565b50806001908051906020019062000149929190620001ad565b50505033600c60006101000a81548173ffffffffffffffffffffffffffffffffffffffff021916908373ffffffffffffffffffffffffffffffffffffffff16021790555080600b9080519060200190620001a5929190620001ad565b5050620004b0565b828054620001bb906200047a565b90600052602060002090601f016020900481019282620001df57600085556200022b565b82601f10620001fa57805160ff19168380011785556200022b565b828001600101855582156200022b579182015b828111156200022a5782518255916020019190600101906200020d565b5b5090506200023a91906200023e565b5090565b5b80821115620002595760008160009055506001016200023f565b5090565b6000604051905090565b600080fd5b600080fd5b600080fd5b600080fd5b6000601f19601f8301169050919050565b7f4e487b7100000000000000000000000000000000000000000000000000000000600052604160045260246000fd5b620002c6826200027b565b810181811067ffffffffffffffff82111715620002e857620002e76200028c565b5b80604052505050565b6000620002fd6200025d565b90506200030b8282620002bb565b919050565b600067ffffffffffffffff8211156200032e576200032d6200028c565b5b62000339826200027b565b9050602081019050919050565b60005b838110156200036657808201518184015260208101905062000349565b8381111562000376576000848401525b50505050565b6000620003936200038d8462000310565b620002f1565b905082815260208101848484011115620003b257620003b162000276565b5b620003bf84828562000346565b509392505050565b600082601f830112620003df57620003de62000271565b5b8151620003f18482602086016200037c565b91505092915050565b60006020828403121562000413576200041262000267565b5b600082015167ffffffffffffffff8111156200043457620004336200026c565b5b6200044284828501620003c7565b91505092915050565b7f4e487b7100000000000000000000000000000000000000000000000000000000600052602260045260246000fd5b600060028204905060018216806200049357607f821691505b60208210811415620004aa57620004a96200044b565b5b50919050565b6146fe80620004c06000396000f3fe60806040526004361061019c5760003560e01c806370a08231116100ec578063c1880a981161008a578063f1dfaefb11610064578063f1dfaefb14610624578063f2c298be14610661578063fb825e5f1461067d578063fe2c6198146106a85761019c565b8063c1880a9814610581578063c87b56dd146105aa578063e985e9c5146105e75761019c565b806395d89b41116100c657806395d89b41146104c7578063a22cb465146104f2578063b88d4fde1461051b578063bf40fac1146105445761019c565b806370a08231146104345780638da5cb5b146104715780638f32d59b1461049c5761019c565b8063264492351161015957806342842e0e1161013357806342842e0e146103545780634622ab031461037d578063541e771d146103ba5780636352211e146103f75761019c565b806326449235146102d55780632d551432146103125780633ccfd60b1461033d5761019c565b806301ffc9a7146101a157806306fdde03146101de578063081812fc14610209578063095ea7b31461024657806311dd88451461026f57806323b872dd146102ac575b600080fd5b3480156101ad57600080fd5b506101c860048036038101906101c39190612c0b565b6106e5565b6040516101d59190612c53565b60405180910390f35b3480156101ea57600080fd5b506101f36107c7565b6040516102009190612d07565b60405180910390f35b34801561021557600080fd5b50610230600480360381019061022b9190612d5f565b610859565b60405161023d9190612dcd565b60405180910390f35b34801561025257600080fd5b5061026d60048036038101906102689190612e14565b6108de565b005b34801561027b57600080fd5b5061029660048036038101906102919190612eb9565b6109f6565b6040516102a39190612d07565b60405180910390f35b3480156102b857600080fd5b506102d360048036038101906102ce9190612f06565b610aa9565b005b3480156102e157600080fd5b506102fc60048036038101906102f79190613089565b610b09565b6040516103099190612dcd565b60405180910390f35b34801561031e57600080fd5b50610327610b52565b6040516103349190612d07565b60405180910390f35b34801561034957600080fd5b50610352610be0565b005b34801561036057600080fd5b5061037b60048036038101906103769190612f06565b610ca6565b005b34801561038957600080fd5b506103a4600480360381019061039f9190612d5f565b610cc6565b6040516103b19190612d07565b60405180910390f35b3480156103c657600080fd5b506103e160048036038101906103dc9190613089565b610d66565b6040516103ee9190612d07565b60405180910390f35b34801561040357600080fd5b5061041e60048036038101906104199190612d5f565b610e1c565b60405161042b9190612dcd565b60405180910390f35b34801561044057600080fd5b5061045b600480360381019061045691906130d2565b610ece565b604051610468919061310e565b60405180910390f35b34801561047d57600080fd5b50610486610f86565b604051610493919061314a565b60405180910390f35b3480156104a857600080fd5b506104b1610fac565b6040516104be9190612c53565b60405180910390f35b3480156104d357600080fd5b506104dc611004565b6040516104e99190612d07565b60405180910390f35b3480156104fe57600080fd5b5061051960048036038101906105149190613191565b611096565b005b34801561052757600080fd5b50610542600480360381019061053d9190613272565b6110ac565b005b34801561055057600080fd5b5061056b60048036038101906105669190612eb9565b61110e565b6040516105789190612dcd565b60405180910390f35b34801561058d57600080fd5b506105a860048036038101906105a391906132f5565b611159565b005b3480156105b657600080fd5b506105d160048036038101906105cc9190612d5f565b611234565b6040516105de9190612d07565b60405180910390f35b3480156105f357600080fd5b5061060e60048036038101906106099190613376565b611386565b60405161061b9190612c53565b60405180910390f35b34801561063057600080fd5b5061064b60048036038101906106469190612eb9565b61141a565b6040516106589190612c53565b60405180910390f35b61067b60048036038101906106769190612eb9565b6114ce565b005b34801561068957600080fd5b506106926117d9565b60405161069f91906134c2565b60405180910390f35b3480156106b457600080fd5b506106cf60048036038101906106ca9190612eb9565b61191f565b6040516106dc919061310e565b60405180910390f35b60007f80ac58cd000000000000000000000000000000000000000000000000000000007bffffffffffffffffffffffffffffffffffffffffffffffffffffffff1916827bffffffffffffffffffffffffffffffffffffffffffffffffffffffff191614806107b057507f5b5e139f000000000000000000000000000000000000000000000000000000007bffffffffffffffffffffffffffffffffffffffffffffffffffffffff1916827bffffffffffffffffffffffffffffffffffffffffffffffffffffffff1916145b806107c057506107bf826119c5565b5b9050919050565b6060600080546107d690613513565b80601f016020809104026020016040519081016040528092919081815260200182805461080290613513565b801561084f5780601f106108245761010080835404028352916020019161084f565b820191906000526020600020905b81548152906001019060200180831161083257829003601f168201915b5050505050905090565b600061086482611a2f565b6108a3576040517f08c379a000000000000000000000000000000000000000000000000000000000815260040161089a906135b7565b60405180910390fd5b6004600083815260200190815260200160002060009054906101000a900473ffffffffffffffffffffffffffffffffffffffff169050919050565b60006108e982610e1c565b90508073ffffffffffffffffffffffffffffffffffffffff168373ffffffffffffffffffffffffffffffffffffffff16141561095a576040517f08c379a000000000000000000000000000000000000000000000000000000000815260040161095190613649565b60405180910390fd5b8073ffffffffffffffffffffffffffffffffffffffff16610979611a9b565b73ffffffffffffffffffffffffffffffffffffffff1614806109a857506109a7816109a2611a9b565b611386565b5b6109e7576040517f08c379a00000000000000000000000000000000000000000000000000000000081526004016109de906136db565b60405180910390fd5b6109f18383611aa3565b505050565b606060088383604051610a0a92919061372b565b90815260200160405180910390208054610a2390613513565b80601f0160208091040260200160405190810160405280929190818152602001828054610a4f90613513565b8015610a9c5780601f10610a7157610100808354040283529160200191610a9c565b820191906000526020600020905b815481529060010190602001808311610a7f57829003601f168201915b5050505050905092915050565b610aba610ab4611a9b565b82611b5c565b610af9576040517f08c379a0000000000000000000000000000000000000000000000000000000008152600401610af0906137b6565b60405180910390fd5b610b04838383611c3a565b505050565b6007818051602081018201805184825260208301602085012081835280955050505050506000915054906101000a900473ffffffffffffffffffffffffffffffffffffffff1681565b600b8054610b5f90613513565b80601f0160208091040260200160405190810160405280929190818152602001828054610b8b90613513565b8015610bd85780601f10610bad57610100808354040283529160200191610bd8565b820191906000526020600020905b815481529060010190602001808311610bbb57829003601f168201915b505050505081565b610be8610fac565b610bf157600080fd5b600047905060003373ffffffffffffffffffffffffffffffffffffffff1682604051610c1c90613807565b60006040518083038185875af1925050503d8060008114610c59576040519150601f19603f3d011682016040523d82523d6000602084013e610c5e565b606091505b5050905080610ca2576040517f08c379a0000000000000000000000000000000000000000000000000000000008152600401610c9990613868565b60405180910390fd5b5050565b610cc1838383604051806020016040528060008152506110ac565b505050565b60096020528060005260406000206000915090508054610ce590613513565b80601f0160208091040260200160405190810160405280929190818152602001828054610d1190613513565b8015610d5e5780601f10610d3357610100808354040283529160200191610d5e565b820191906000526020600020905b815481529060010190602001808311610d4157829003601f168201915b505050505081565b6008818051602081018201805184825260208301602085012081835280955050505050506000915090508054610d9b90613513565b80601f0160208091040260200160405190810160405280929190818152602001828054610dc790613513565b8015610e145780601f10610de957610100808354040283529160200191610e14565b820191906000526020600020905b815481529060010190602001808311610df757829003601f168201915b505050505081565b6000806002600084815260200190815260200160002060009054906101000a900473ffffffffffffffffffffffffffffffffffffffff169050600073ffffffffffffffffffffffffffffffffffffffff168173ffffffffffffffffffffffffffffffffffffffff161415610ec5576040517f08c379a0000000000000000000000000000000000000000000000000000000008152600401610ebc906138fa565b60405180910390fd5b80915050919050565b60008073ffffffffffffffffffffffffffffffffffffffff168273ffffffffffffffffffffffffffffffffffffffff161415610f3f576040517f08c379a0000000000000000000000000000000000000000000000000000000008152600401610f369061398c565b60405180910390fd5b600360008373ffffffffffffffffffffffffffffffffffffffff1673ffffffffffffffffffffffffffffffffffffffff168152602001908152602001600020549050919050565b600c60009054906101000a900473ffffffffffffffffffffffffffffffffffffffff1681565b6000600c60009054906101000a900473ffffffffffffffffffffffffffffffffffffffff1673ffffffffffffffffffffffffffffffffffffffff163373ffffffffffffffffffffffffffffffffffffffff1614905090565b60606001805461101390613513565b80601f016020809104026020016040519081016040528092919081815260200182805461103f90613513565b801561108c5780601f106110615761010080835404028352916020019161108c565b820191906000526020600020905b81548152906001019060200180831161106f57829003601f168201915b5050505050905090565b6110a86110a1611a9b565b8383611ea1565b5050565b6110bd6110b7611a9b565b83611b5c565b6110fc576040517f08c379a00000000000000000000000000000000000000000000000000000000081526004016110f3906137b6565b60405180910390fd5b6111088484848461200e565b50505050565b60006007838360405161112292919061372b565b908152602001604051809103902060009054906101000a900473ffffffffffffffffffffffffffffffffffffffff16905092915050565b6007848460405161116b92919061372b565b908152602001604051809103902060009054906101000a900473ffffffffffffffffffffffffffffffffffffffff1673ffffffffffffffffffffffffffffffffffffffff163373ffffffffffffffffffffffffffffffffffffffff16146111fe576040517f82b4290000000000000000000000000000000000000000000000000000000000815260040160405180910390fd5b81816008868660405161121292919061372b565b9081526020016040518091039020919061122d929190612a76565b5050505050565b606061123f82611a2f565b61127e576040517f08c379a000000000000000000000000000000000000000000000000000000000815260040161127590613a1e565b60405180910390fd5b600060066000848152602001908152602001600020805461129e90613513565b80601f01602080910402602001604051908101604052809291908181526020018280546112ca90613513565b80156113175780601f106112ec57610100808354040283529160200191611317565b820191906000526020600020905b8154815290600101906020018083116112fa57829003601f168201915b50505050509050600061132861206a565b905060008151141561133e578192505050611381565b60008251111561137357808260405160200161135b929190613a6f565b60405160208183030381529060405292505050611381565b61137c84612081565b925050505b919050565b6000600560008473ffffffffffffffffffffffffffffffffffffffff1673ffffffffffffffffffffffffffffffffffffffff16815260200190815260200160002060008373ffffffffffffffffffffffffffffffffffffffff1673ffffffffffffffffffffffffffffffffffffffff16815260200190815260200160002060009054906101000a900460ff16905092915050565b6000600361146b84848080601f016020809104026020016040519081016040528093929190818152602001838380828437600081840152601f19601f82011690508083019250505050505050612128565b101580156114c65750600a6114c384848080601f016020809104026020016040519081016040528093929190818152602001838380828437600081840152601f19601f82011690508083019250505050505050612128565b11155b905092915050565b600073ffffffffffffffffffffffffffffffffffffffff16600783836040516114f892919061372b565b908152602001604051809103902060009054906101000a900473ffffffffffffffffffffffffffffffffffffffff1673ffffffffffffffffffffffffffffffffffffffff1614611574576040517f3a81d6fc00000000000000000000000000000000000000000000000000000000815260040160405180910390fd5b61157e828261141a565b6115c15781816040517f7f19f48d0000000000000000000000000000000000000000000000000000000081526004016115b8929190613ac0565b60405180910390fd5b60006115cd838361191f565b905080341015611612576040517f08c379a000000000000000000000000000000000000000000000000000000000815260040161160990613b30565b60405180910390fd5b60008383600b60405160200161162a93929190613c30565b60405160208183030381529060405290506000600d82600e60405160200161165493929190613c61565b60405160208183030381529060405290506000611671600a6122dd565b905060006116c287878080601f016020809104026020016040519081016040528093929190818152602001838380828437600081840152601f19601f82011690508083019250505050505050612128565b905060006116cf826122eb565b90506000611707866116e08761244c565b846040516020016116f393929190613e0e565b60405160208183030381529060405261244c565b905060008160405160200161171c9190613eb7565b604051602081830303815290604052905061173733866125e4565b6117418582612602565b3360078b8b60405161175492919061372b565b908152602001604051809103902060006101000a81548173ffffffffffffffffffffffffffffffffffffffff021916908373ffffffffffffffffffffffffffffffffffffffff1602179055506117aa600a612676565b89896009600088815260200190815260200160002091906117cc929190612a76565b5050505050505050505050565b606060006117e7600a6122dd565b67ffffffffffffffff811115611800576117ff612f5e565b5b60405190808252806020026020018201604052801561183357816020015b606081526020019060019003908161181e5790505b50905060005b611843600a6122dd565b8110156119175760096000828152602001908152602001600020805461186890613513565b80601f016020809104026020016040519081016040528092919081815260200182805461189490613513565b80156118e15780601f106118b6576101008083540402835291602001916118e1565b820191906000526020600020905b8154815290600101906020018083116118c457829003601f168201915b50505050508282815181106118f9576118f8613ed9565b5b6020026020010181905250808061190f90613f37565b915050611839565b508091505090565b60008061196f84848080601f016020809104026020016040519081016040528093929190818152602001838380828437600081840152601f19601f82011690508083019250505050505050612128565b90506000811161197e57600080fd5b6003811415611998576706f05b59d3b200009150506119bf565b60048114156119b257670429d069189e00009150506119bf565b67016345785d8a00009150505b92915050565b60007f01ffc9a7000000000000000000000000000000000000000000000000000000007bffffffffffffffffffffffffffffffffffffffffffffffffffffffff1916827bffffffffffffffffffffffffffffffffffffffffffffffffffffffff1916149050919050565b60008073ffffffffffffffffffffffffffffffffffffffff166002600084815260200190815260200160002060009054906101000a900473ffffffffffffffffffffffffffffffffffffffff1673ffffffffffffffffffffffffffffffffffffffff1614159050919050565b600033905090565b816004600083815260200190815260200160002060006101000a81548173ffffffffffffffffffffffffffffffffffffffff021916908373ffffffffffffffffffffffffffffffffffffffff160217905550808273ffffffffffffffffffffffffffffffffffffffff16611b1683610e1c565b73ffffffffffffffffffffffffffffffffffffffff167f8c5be1e5ebec7d5bd14f71427d1e84f3dd0314c0f7b2291e5b200ac8c7c3b92560405160405180910390a45050565b6000611b6782611a2f565b611ba6576040517f08c379a0000000000000000000000000000000000000000000000000000000008152600401611b9d90613ff2565b60405180910390fd5b6000611bb183610e1c565b90508073ffffffffffffffffffffffffffffffffffffffff168473ffffffffffffffffffffffffffffffffffffffff161480611bf35750611bf28185611386565b5b80611c3157508373ffffffffffffffffffffffffffffffffffffffff16611c1984610859565b73ffffffffffffffffffffffffffffffffffffffff16145b91505092915050565b8273ffffffffffffffffffffffffffffffffffffffff16611c5a82610e1c565b73ffffffffffffffffffffffffffffffffffffffff1614611cb0576040517f08c379a0000000000000000000000000000000000000000000000000000000008152600401611ca790614084565b60405180910390fd5b600073ffffffffffffffffffffffffffffffffffffffff168273ffffffffffffffffffffffffffffffffffffffff161415611d20576040517f08c379a0000000000000000000000000000000000000000000000000000000008152600401611d1790614116565b60405180910390fd5b611d2b83838361268c565b611d36600082611aa3565b6001600360008573ffffffffffffffffffffffffffffffffffffffff1673ffffffffffffffffffffffffffffffffffffffff1681526020019081526020016000206000828254611d869190614136565b925050819055506001600360008473ffffffffffffffffffffffffffffffffffffffff1673ffffffffffffffffffffffffffffffffffffffff1681526020019081526020016000206000828254611ddd919061416a565b92505081905550816002600083815260200190815260200160002060006101000a81548173ffffffffffffffffffffffffffffffffffffffff021916908373ffffffffffffffffffffffffffffffffffffffff160217905550808273ffffffffffffffffffffffffffffffffffffffff168473ffffffffffffffffffffffffffffffffffffffff167fddf252ad1be2c89b69c2b068fc378daa952ba7f163c4a11628f55a4df523b3ef60405160405180910390a4611e9c838383612691565b505050565b8173ffffffffffffffffffffffffffffffffffffffff168373ffffffffffffffffffffffffffffffffffffffff161415611f10576040517f08c379a0000000000000000000000000000000000000000000000000000000008152600401611f079061420c565b60405180910390fd5b80600560008573ffffffffffffffffffffffffffffffffffffffff1673ffffffffffffffffffffffffffffffffffffffff16815260200190815260200160002060008473ffffffffffffffffffffffffffffffffffffffff1673ffffffffffffffffffffffffffffffffffffffff16815260200190815260200160002060006101000a81548160ff0219169083151502179055508173ffffffffffffffffffffffffffffffffffffffff168373ffffffffffffffffffffffffffffffffffffffff167f17307eab39ab6107e8899845ad3d59bd9653f200f220920489ca2b5937696c31836040516120019190612c53565b60405180910390a3505050565b612019848484611c3a565b61202584848484612696565b612064576040517f08c379a000000000000000000000000000000000000000000000000000000000815260040161205b9061429e565b60405180910390fd5b50505050565b606060405180602001604052806000815250905090565b606061208c82611a2f565b6120cb576040517f08c379a00000000000000000000000000000000000000000000000000000000081526004016120c290614330565b60405180910390fd5b60006120d561206a565b905060008151116120f55760405180602001604052806000815250612120565b806120ff846122eb565b604051602001612110929190613a6f565b6040516020818303038152906040525b915050919050565b60008060008084519050600092505b808210156122d257600085838151811061215457612153613ed9565b5b602001015160f81c60f81b9050608060f81b817effffffffffffffffffffffffffffffffffffffffffffffffffffffffffffff191610156121a35760018361219c919061416a565b92506122be565b60e060f81b817effffffffffffffffffffffffffffffffffffffffffffffffffffffffffffff191610156121e5576002836121de919061416a565b92506122bd565b60f060f81b817effffffffffffffffffffffffffffffffffffffffffffffffffffffffffffff1916101561222757600383612220919061416a565b92506122bc565b60f8801b817effffffffffffffffffffffffffffffffffffffffffffffffffffffffffffff1916101561226857600483612261919061416a565b92506122bb565b60fc60f81b817effffffffffffffffffffffffffffffffffffffffffffffffffffffffffffff191610156122aa576005836122a3919061416a565b92506122ba565b6006836122b7919061416a565b92505b5b5b5b5b5082806122ca90613f37565b935050612137565b829350505050919050565b600081600001549050919050565b60606000821415612333576040518060400160405280600181526020017f30000000000000000000000000000000000000000000000000000000000000008152509050612447565b600082905060005b6000821461236557808061234e90613f37565b915050600a8261235e919061437f565b915061233b565b60008167ffffffffffffffff81111561238157612380612f5e565b5b6040519080825280601f01601f1916602001820160405280156123b35781602001600182028036833780820191505090505b5090505b60008514612440576001826123cc9190614136565b9150600a856123db91906143b0565b60306123e7919061416a565b60f81b8183815181106123fd576123fc613ed9565b5b60200101907effffffffffffffffffffffffffffffffffffffffffffffffffffffffffffff1916908160001a905350600a85612439919061437f565b94506123b7565b8093505050505b919050565b6060600082519050600081141561247557604051806020016040528060008152509150506125df565b60006003600283612486919061416a565b612490919061437f565b600461249c91906143e1565b905060006020826124ad919061416a565b67ffffffffffffffff8111156124c6576124c5612f5e565b5b6040519080825280601f01601f1916602001820160405280156124f85781602001600182028036833780820191505090505b5090506000604051806060016040528060408152602001614689604091399050600181016020830160005b8681101561259c5760038101905062ffffff818a015116603f8160121c168401518060081b905060ff603f83600c1c1686015116810190508060081b905060ff603f8360061c1686015116810190508060081b905060ff603f831686015116810190508060e01b90508084526004840193505050612523565b5060038606600181146125b657600281146125c6576125d1565b613d3d60f01b60028303526125d1565b603d60f81b60018303525b508484525050819450505050505b919050565b6125fe82826040518060200160405280600081525061281e565b5050565b61260b82611a2f565b61264a576040517f08c379a0000000000000000000000000000000000000000000000000000000008152600401612641906144ad565b60405180910390fd5b80600660008481526020019081526020016000209080519060200190612671929190612afc565b505050565b6001816000016000828254019250508190555050565b505050565b505050565b60006126b78473ffffffffffffffffffffffffffffffffffffffff16612879565b15612811578373ffffffffffffffffffffffffffffffffffffffff1663150b7a026126e0611a9b565b8786866040518563ffffffff1660e01b81526004016127029493929190614522565b6020604051808303816000875af192505050801561273e57506040513d601f19601f8201168201806040525081019061273b9190614583565b60015b6127c1573d806000811461276e576040519150601f19603f3d011682016040523d82523d6000602084013e612773565b606091505b506000815114156127b9576040517f08c379a00000000000000000000000000000000000000000000000000000000081526004016127b09061429e565b60405180910390fd5b805181602001fd5b63150b7a0260e01b7bffffffffffffffffffffffffffffffffffffffffffffffffffffffff1916817bffffffffffffffffffffffffffffffffffffffffffffffffffffffff191614915050612816565b600190505b949350505050565b612828838361289c565b6128356000848484612696565b612874576040517f08c379a000000000000000000000000000000000000000000000000000000000815260040161286b9061429e565b60405180910390fd5b505050565b6000808273ffffffffffffffffffffffffffffffffffffffff163b119050919050565b600073ffffffffffffffffffffffffffffffffffffffff168273ffffffffffffffffffffffffffffffffffffffff16141561290c576040517f08c379a0000000000000000000000000000000000000000000000000000000008152600401612903906145fc565b60405180910390fd5b61291581611a2f565b15612955576040517f08c379a000000000000000000000000000000000000000000000000000000000815260040161294c90614668565b60405180910390fd5b6129616000838361268c565b6001600360008473ffffffffffffffffffffffffffffffffffffffff1673ffffffffffffffffffffffffffffffffffffffff16815260200190815260200160002060008282546129b1919061416a565b92505081905550816002600083815260200190815260200160002060006101000a81548173ffffffffffffffffffffffffffffffffffffffff021916908373ffffffffffffffffffffffffffffffffffffffff160217905550808273ffffffffffffffffffffffffffffffffffffffff16600073ffffffffffffffffffffffffffffffffffffffff167fddf252ad1be2c89b69c2b068fc378daa952ba7f163c4a11628f55a4df523b3ef60405160405180910390a4612a7260008383612691565b5050565b828054612a8290613513565b90600052602060002090601f016020900481019282612aa45760008555612aeb565b82601f10612abd57803560ff1916838001178555612aeb565b82800160010185558215612aeb579182015b82811115612aea578235825591602001919060010190612acf565b5b509050612af89190612b82565b5090565b828054612b0890613513565b90600052602060002090601f016020900481019282612b2a5760008555612b71565b82601f10612b4357805160ff1916838001178555612b71565b82800160010185558215612b71579182015b82811115612b70578251825591602001919060010190612b55565b5b509050612b7e9190612b82565b5090565b5b80821115612b9b576000816000905550600101612b83565b5090565b6000604051905090565b600080fd5b600080fd5b60007fffffffff0000000000000000000000000000000000000000000000000000000082169050919050565b612be881612bb3565b8114612bf357600080fd5b50565b600081359050612c0581612bdf565b92915050565b600060208284031215612c2157612c20612ba9565b5b6000612c2f84828501612bf6565b91505092915050565b60008115159050919050565b612c4d81612c38565b82525050565b6000602082019050612c686000830184612c44565b92915050565b600081519050919050565b600082825260208201905092915050565b60005b83811015612ca8578082015181840152602081019050612c8d565b83811115612cb7576000848401525b50505050565b6000601f19601f8301169050919050565b6000612cd982612c6e565b612ce38185612c79565b9350612cf3818560208601612c8a565b612cfc81612cbd565b840191505092915050565b60006020820190508181036000830152612d218184612cce565b905092915050565b6000819050919050565b612d3c81612d29565b8114612d4757600080fd5b50565b600081359050612d5981612d33565b92915050565b600060208284031215612d7557612d74612ba9565b5b6000612d8384828501612d4a565b91505092915050565b600073ffffffffffffffffffffffffffffffffffffffff82169050919050565b6000612db782612d8c565b9050919050565b612dc781612dac565b82525050565b6000602082019050612de26000830184612dbe565b92915050565b612df181612dac565b8114612dfc57600080fd5b50565b600081359050612e0e81612de8565b92915050565b60008060408385031215612e2b57612e2a612ba9565b5b6000612e3985828601612dff565b9250506020612e4a85828601612d4a565b9150509250929050565b600080fd5b600080fd5b600080fd5b60008083601f840112612e7957612e78612e54565b5b8235905067ffffffffffffffff811115612e9657612e95612e59565b5b602083019150836001820283011115612eb257612eb1612e5e565b5b9250929050565b60008060208385031215612ed057612ecf612ba9565b5b600083013567ffffffffffffffff811115612eee57612eed612bae565b5b612efa85828601612e63565b92509250509250929050565b600080600060608486031215612f1f57612f1e612ba9565b5b6000612f2d86828701612dff565b9350506020612f3e86828701612dff565b9250506040612f4f86828701612d4a565b9150509250925092565b600080fd5b7f4e487b7100000000000000000000000000000000000000000000000000000000600052604160045260246000fd5b612f9682612cbd565b810181811067ffffffffffffffff82111715612fb557612fb4612f5e565b5b80604052505050565b6000612fc8612b9f565b9050612fd48282612f8d565b919050565b600067ffffffffffffffff821115612ff457612ff3612f5e565b5b612ffd82612cbd565b9050602081019050919050565b82818337600083830152505050565b600061302c61302784612fd9565b612fbe565b90508281526020810184848401111561304857613047612f59565b5b61305384828561300a565b509392505050565b600082601f8301126130705761306f612e54565b5b8135613080848260208601613019565b91505092915050565b60006020828403121561309f5761309e612ba9565b5b600082013567ffffffffffffffff8111156130bd576130bc612bae565b5b6130c98482850161305b565b91505092915050565b6000602082840312156130e8576130e7612ba9565b5b60006130f684828501612dff565b91505092915050565b61310881612d29565b82525050565b600060208201905061312360008301846130ff565b92915050565b600061313482612d8c565b9050919050565b61314481613129565b82525050565b600060208201905061315f600083018461313b565b92915050565b61316e81612c38565b811461317957600080fd5b50565b60008135905061318b81613165565b92915050565b600080604083850312156131a8576131a7612ba9565b5b60006131b685828601612dff565b92505060206131c78582860161317c565b9150509250929050565b600067ffffffffffffffff8211156131ec576131eb612f5e565b5b6131f582612cbd565b9050602081019050919050565b6000613215613210846131d1565b612fbe565b90508281526020810184848401111561323157613230612f59565b5b61323c84828561300a565b509392505050565b600082601f83011261325957613258612e54565b5b8135613269848260208601613202565b91505092915050565b6000806000806080858703121561328c5761328b612ba9565b5b600061329a87828801612dff565b94505060206132ab87828801612dff565b93505060406132bc87828801612d4a565b925050606085013567ffffffffffffffff8111156132dd576132dc612bae565b5b6132e987828801613244565b91505092959194509250565b6000806000806040858703121561330f5761330e612ba9565b5b600085013567ffffffffffffffff81111561332d5761332c612bae565b5b61333987828801612e63565b9450945050602085013567ffffffffffffffff81111561335c5761335b612bae565b5b61336887828801612e63565b925092505092959194509250565b6000806040838503121561338d5761338c612ba9565b5b600061339b85828601612dff565b92505060206133ac85828601612dff565b9150509250929050565b600081519050919050565b600082825260208201905092915050565b6000819050602082019050919050565b600082825260208201905092915050565b60006133fe82612c6e565b61340881856133e2565b9350613418818560208601612c8a565b61342181612cbd565b840191505092915050565b600061343883836133f3565b905092915050565b6000602082019050919050565b6000613458826133b6565b61346281856133c1565b935083602082028501613474856133d2565b8060005b858110156134b05784840389528151613491858261342c565b945061349c83613440565b925060208a01995050600181019050613478565b50829750879550505050505092915050565b600060208201905081810360008301526134dc818461344d565b905092915050565b7f4e487b7100000000000000000000000000000000000000000000000000000000600052602260045260246000fd5b6000600282049050600182168061352b57607f821691505b6020821081141561353f5761353e6134e4565b5b50919050565b7f4552433732313a20617070726f76656420717565727920666f72206e6f6e657860008201527f697374656e7420746f6b656e0000000000000000000000000000000000000000602082015250565b60006135a1602c83612c79565b91506135ac82613545565b604082019050919050565b600060208201905081810360008301526135d081613594565b9050919050565b7f4552433732313a20617070726f76616c20746f2063757272656e74206f776e6560008201527f7200000000000000000000000000000000000000000000000000000000000000602082015250565b6000613633602183612c79565b915061363e826135d7565b604082019050919050565b6000602082019050818103600083015261366281613626565b9050919050565b7f4552433732313a20617070726f76652063616c6c6572206973206e6f74206f7760008201527f6e6572206e6f7220617070726f76656420666f7220616c6c0000000000000000602082015250565b60006136c5603883612c79565b91506136d082613669565b604082019050919050565b600060208201905081810360008301526136f4816136b8565b9050919050565b600081905092915050565b600061371283856136fb565b935061371f83858461300a565b82840190509392505050565b6000613738828486613706565b91508190509392505050565b7f4552433732313a207472616e736665722063616c6c6572206973206e6f74206f60008201527f776e6572206e6f7220617070726f766564000000000000000000000000000000602082015250565b60006137a0603183612c79565b91506137ab82613744565b604082019050919050565b600060208201905081810360008301526137cf81613793565b9050919050565b600081905092915050565b50565b60006137f16000836137d6565b91506137fc826137e1565b600082019050919050565b6000613812826137e4565b9150819050919050565b7f4661696c656420746f2077697468647261772066756e64730000000000000000600082015250565b6000613852601883612c79565b915061385d8261381c565b602082019050919050565b6000602082019050818103600083015261388181613845565b9050919050565b7f4552433732313a206f776e657220717565727920666f72206e6f6e657869737460008201527f656e7420746f6b656e0000000000000000000000000000000000000000000000602082015250565b60006138e4602983612c79565b91506138ef82613888565b604082019050919050565b60006020820190508181036000830152613913816138d7565b9050919050565b7f4552433732313a2062616c616e636520717565727920666f7220746865207a6560008201527f726f206164647265737300000000000000000000000000000000000000000000602082015250565b6000613976602a83612c79565b91506139818261391a565b604082019050919050565b600060208201905081810360008301526139a581613969565b9050919050565b7f45524337323155524953746f726167653a2055524920717565727920666f722060008201527f6e6f6e6578697374656e7420746f6b656e000000000000000000000000000000602082015250565b6000613a08603183612c79565b9150613a13826139ac565b604082019050919050565b60006020820190508181036000830152613a37816139fb565b9050919050565b6000613a4982612c6e565b613a5381856136fb565b9350613a63818560208601612c8a565b80840191505092915050565b6000613a7b8285613a3e565b9150613a878284613a3e565b91508190509392505050565b6000613a9f8385612c79565b9350613aac83858461300a565b613ab583612cbd565b840190509392505050565b60006020820190508181036000830152613adb818486613a93565b90509392505050565b7f4e6f7420656e6f756768206d617469632e2e0000000000000000000000000000600082015250565b6000613b1a601283612c79565b9150613b2582613ae4565b602082019050919050565b60006020820190508181036000830152613b4981613b0d565b9050919050565b7f2e00000000000000000000000000000000000000000000000000000000000000600082015250565b6000613b866001836136fb565b9150613b9182613b50565b600182019050919050565b60008190508160005260206000209050919050565b60008154613bbe81613513565b613bc881866136fb565b94506001821660008114613be35760018114613bf457613c27565b60ff19831686528186019350613c27565b613bfd85613b9c565b60005b83811015613c1f57815481890152600182019150602081019050613c00565b838801955050505b50505092915050565b6000613c3d828587613706565b9150613c4882613b79565b9150613c548284613bb1565b9150819050949350505050565b6000613c6d8286613bb1565b9150613c798285613a3e565b9150613c858284613bb1565b9150819050949350505050565b7f7b226e616d65223a202200000000000000000000000000000000000000000000600082015250565b6000613cc8600a836136fb565b9150613cd382613c92565b600a82019050919050565b7f222c20226465736372697074696f6e223a20224120646f6d61696e206f6e207460008201527f68652047696e676572206e616d652073657276696365222c2022696d6167652260208201527f3a2022646174613a696d6167652f7376672b786d6c3b6261736536342c000000604082015250565b6000613d60605d836136fb565b9150613d6b82613cde565b605d82019050919050565b7f222c226c656e677468223a220000000000000000000000000000000000000000600082015250565b6000613dac600c836136fb565b9150613db782613d76565b600c82019050919050565b7f227d000000000000000000000000000000000000000000000000000000000000600082015250565b6000613df86002836136fb565b9150613e0382613dc2565b600282019050919050565b6000613e1982613cbb565b9150613e258286613a3e565b9150613e3082613d53565b9150613e3c8285613a3e565b9150613e4782613d9f565b9150613e538284613a3e565b9150613e5e82613deb565b9150819050949350505050565b7f646174613a6170706c69636174696f6e2f6a736f6e3b6261736536342c000000600082015250565b6000613ea1601d836136fb565b9150613eac82613e6b565b601d82019050919050565b6000613ec282613e94565b9150613ece8284613a3e565b915081905092915050565b7f4e487b7100000000000000000000000000000000000000000000000000000000600052603260045260246000fd5b7f4e487b7100000000000000000000000000000000000000000000000000000000600052601160045260246000fd5b6000613f4282612d29565b91507fffffffffffffffffffffffffffffffffffffffffffffffffffffffffffffffff821415613f7557613f74613f08565b5b600182019050919050565b7f4552433732313a206f70657261746f7220717565727920666f72206e6f6e657860008201527f697374656e7420746f6b656e0000000000000000000000000000000000000000602082015250565b6000613fdc602c83612c79565b9150613fe782613f80565b604082019050919050565b6000602082019050818103600083015261400b81613fcf565b9050919050565b7f4552433732313a207472616e736665722066726f6d20696e636f72726563742060008201527f6f776e6572000000000000000000000000000000000000000000000000000000602082015250565b600061406e602583612c79565b915061407982614012565b604082019050919050565b6000602082019050818103600083015261409d81614061565b9050919050565b7f4552433732313a207472616e7366657220746f20746865207a65726f2061646460008201527f7265737300000000000000000000000000000000000000000000000000000000602082015250565b6000614100602483612c79565b915061410b826140a4565b604082019050919050565b6000602082019050818103600083015261412f816140f3565b9050919050565b600061414182612d29565b915061414c83612d29565b92508282101561415f5761415e613f08565b5b828203905092915050565b600061417582612d29565b915061418083612d29565b9250827fffffffffffffffffffffffffffffffffffffffffffffffffffffffffffffffff038211156141b5576141b4613f08565b5b828201905092915050565b7f4552433732313a20617070726f766520746f2063616c6c657200000000000000600082015250565b60006141f6601983612c79565b9150614201826141c0565b602082019050919050565b60006020820190508181036000830152614225816141e9565b9050919050565b7f4552433732313a207472616e7366657220746f206e6f6e20455243373231526560008201527f63656976657220696d706c656d656e7465720000000000000000000000000000602082015250565b6000614288603283612c79565b91506142938261422c565b604082019050919050565b600060208201905081810360008301526142b78161427b565b9050919050565b7f4552433732314d657461646174613a2055524920717565727920666f72206e6f60008201527f6e6578697374656e7420746f6b656e0000000000000000000000000000000000602082015250565b600061431a602f83612c79565b9150614325826142be565b604082019050919050565b600060208201905081810360008301526143498161430d565b9050919050565b7f4e487b7100000000000000000000000000000000000000000000000000000000600052601260045260246000fd5b600061438a82612d29565b915061439583612d29565b9250826143a5576143a4614350565b5b828204905092915050565b60006143bb82612d29565b91506143c683612d29565b9250826143d6576143d5614350565b5b828206905092915050565b60006143ec82612d29565b91506143f783612d29565b9250817fffffffffffffffffffffffffffffffffffffffffffffffffffffffffffffffff04831182151516156144305761442f613f08565b5b828202905092915050565b7f45524337323155524953746f726167653a2055524920736574206f66206e6f6e60008201527f6578697374656e7420746f6b656e000000000000000000000000000000000000602082015250565b6000614497602e83612c79565b91506144a28261443b565b604082019050919050565b600060208201905081810360008301526144c68161448a565b9050919050565b600081519050919050565b600082825260208201905092915050565b60006144f4826144cd565b6144fe81856144d8565b935061450e818560208601612c8a565b61451781612cbd565b840191505092915050565b60006080820190506145376000830187612dbe565b6145446020830186612dbe565b61455160408301856130ff565b818103606083015261456381846144e9565b905095945050505050565b60008151905061457d81612bdf565b92915050565b60006020828403121561459957614598612ba9565b5b60006145a78482850161456e565b91505092915050565b7f4552433732313a206d696e7420746f20746865207a65726f2061646472657373600082015250565b60006145e6602083612c79565b91506145f1826145b0565b602082019050919050565b60006020820190508181036000830152614615816145d9565b9050919050565b7f4552433732313a20746f6b656e20616c7265616479206d696e74656400000000600082015250565b6000614652601c83612c79565b915061465d8261461c565b602082019050919050565b6000602082019050818103600083015261468181614645565b905091905056fe4142434445464748494a4b4c4d4e4f505152535455565758595a6162636465666768696a6b6c6d6e6f707172737475767778797a303132333435363738392b2fa26469706673582212202798ed8344febfb51343eaecc2bf72cd756e61bfd06e9e86076e6abd7825e2b264736f6c634300080a00333c73766720786d6c6e733d22687474703a2f2f7777772e77332e6f72672f323030302f737667222077696474683d2232373022206865696768743d22323730222066696c6c3d226e6f6e65223e3c706174682066696c6c3d2275726c282342292220643d224d302030683237307632373048307a222f3e3c646566733e3c66696c7465722069643d22412220636f6c6f722d696e746572706f6c6174696f6e2d66696c746572733d2273524742222066696c746572556e6974733d227573657253706163654f6e55736522206865696768743d22323730222077696474683d22323730223e3c666544726f70536861646f772064783d2230222064793d22312220737464446576696174696f6e3d22322220666c6f6f642d6f7061636974793d222e323235222077696474683d223230302522206865696768743d2232303025222f3e3c2f66696c7465723e3c2f646566733e3c7061746820643d224d37322e3836332034322e393439632d2e3636382d2e3338372d312e3432362d2e35392d322e3139372d2e3539732d312e3532392e3230342d322e3139372e35396c2d31302e30383120362e3033322d362e383520332e3933342d31302e30383120362e303332632d2e3636382e3338372d312e3432362e35392d322e3139372e3539732d312e3532392d2e3230342d322e3139372d2e35396c2d382e3031332d342e37323161342e353220342e35322030203020312d312e3538392d312e363136632d2e3338342d2e3636352d2e3539342d312e3431382d2e3630382d322e313837762d392e3331632d2e3031332d2e3737352e3138352d312e3533382e3537322d322e32303861342e323520342e323520302030203120312e3632352d312e3539356c372e3838342d342e3539632e3636382d2e33383720312e3432362d2e353920322e3139372d2e353973312e3532392e32303420322e3139372e35396c372e38383420342e353961342e353220342e353220302030203120312e35383920312e363136632e3338342e3636352e35393420312e3431382e36303820322e31383776362e3033326c362e38352d342e303635762d362e303332632e3031332d2e3737352d2e3138352d312e3533382d2e3537322d322e32303861342e323520342e32352030203020302d312e3632352d312e3539354c34312e3435362032342e3539632d2e3636382d2e3338372d312e3432362d2e35392d322e3139372d2e3539732d312e3532392e3230342d322e3139372e35396c2d31342e38363420382e36353561342e323520342e32352030203020302d312e36323520312e353935632d2e3338372e36372d2e35383520312e3433342d2e35373220322e3230387631372e343431632d2e3031332e3737352e31383520312e3533382e35373220322e32303861342e323520342e323520302030203020312e36323520312e3539356c31342e38363420382e363535632e3636382e33383720312e3432362e353920322e3139372e353973312e3532392d2e32303420322e3139372d2e35396c31302e3038312d352e39303120362e38352d342e3036352031302e3038312d352e393031632e3636382d2e33383720312e3432362d2e353920322e3139372d2e353973312e3532392e32303420322e3139372e35396c372e38383420342e353961342e353220342e353220302030203120312e35383920312e363136632e3338342e3636352e35393420312e3431382e36303820322e31383776392e333131632e3031332e3737352d2e31383520312e3533382d2e35373220322e32303861342e323520342e32352030203020312d312e36323520312e3539356c2d372e38383420342e373231632d2e3636382e3338372d312e3432362e35392d322e3139372e3539732d312e3532392d2e3230342d322e3139372d2e35396c2d372e3838342d342e353961342e353220342e35322030203020312d312e3538392d312e363136632d2e3338352d2e3636352d2e3539342d312e3431382d2e3630382d322e313837762d362e3033326c2d362e383520342e30363576362e303332632d2e3031332e3737352e31383520312e3533382e35373220322e32303861342e323520342e323520302030203020312e36323520312e3539356c31342e38363420382e363535632e3636382e33383720312e3432362e353920322e3139372e353973312e3532392d2e32303420322e3139372d2e35396c31342e3836342d382e363535632e3635372d2e33393420312e3230342d2e393520312e3538392d312e363136732e3539342d312e3431382e3630392d322e3138375635352e353338632e3031332d2e3737352d2e3138352d312e3533382d2e3537322d322e32303861342e323520342e32352030203020302d312e3632352d312e3539356c2d31342e3939332d382e3738367a222066696c6c3d2223666666222f3e3c646566733e3c6c696e6561724772616469656e742069643d2242222078313d2230222079313d2230222078323d22323730222079323d2232373022206772616469656e74556e6974733d227573657253706163654f6e557365223e3c73746f702073746f702d636f6c6f723d2223636235656565222f3e3c73746f70206f66667365743d2231222073746f702d636f6c6f723d2223306364376534222073746f702d6f7061636974793d222e3939222f3e3c2f6c696e6561724772616469656e743e3c2f646566733e3c7465787420783d2233322e352220793d223233312220666f6e742d73697a653d223237222066696c6c3d2223666666222066696c7465723d2275726c282341292220666f6e742d66616d696c793d22506c7573204a616b617274612053616e732c44656a6156752053616e732c4e6f746f20436f6c6f7220456d6f6a692c4170706c6520436f6c6f7220456d6f6a692c73616e732d73657269662220666f6e742d7765696768743d22626f6c64223e",
    "linkReferences": {},
    "deployedLinkReferences": {}
}