{
    "_format": "hh-sol-artifact-1",
    "contractName": "Domains",
    "sourceName": "contracts/Domains.sol",
    "abi": [
        {
            "inputs": [
                {
                    "internalType": "string",
                    "name": "_tld",
                    "type": "string"
                }
            ],
            "stateMutability": "payable",
            "type": "constructor"
        },
        {
            "anonymous": false,
            "inputs": [
                {
                    "indexed": true,
                    "internalType": "address",
                    "name": "owner",
                    "type": "address"
                },
                {
                    "indexed": true,
                    "internalType": "address",
                    "name": "approved",
                    "type": "address"
                },
                {
                    "indexed": true,
                    "internalType": "uint256",
                    "name": "tokenId",
                    "type": "uint256"
                }
            ],
            "name": "Approval",
            "type": "event"
        },
        {
            "anonymous": false,
            "inputs": [
                {
                    "indexed": true,
                    "internalType": "address",
                    "name": "owner",
                    "type": "address"
                },
                {
                    "indexed": true,
                    "internalType": "address",
                    "name": "operator",
                    "type": "address"
                },
                {
                    "indexed": false,
                    "internalType": "bool",
                    "name": "approved",
                    "type": "bool"
                }
            ],
            "name": "ApprovalForAll",
            "type": "event"
        },
        {
            "anonymous": false,
            "inputs": [
                {
                    "indexed": true,
                    "internalType": "address",
                    "name": "from",
                    "type": "address"
                },
                {
                    "indexed": true,
                    "internalType": "address",
                    "name": "to",
                    "type": "address"
                },
                {
                    "indexed": true,
                    "internalType": "uint256",
                    "name": "tokenId",
                    "type": "uint256"
                }
            ],
            "name": "Transfer",
            "type": "event"
        },
        {
            "inputs": [
                {
                    "internalType": "address",
                    "name": "to",
                    "type": "address"
                },
                {
                    "internalType": "uint256",
                    "name": "tokenId",
                    "type": "uint256"
                }
            ],
            "name": "approve",
            "outputs": [],
            "stateMutability": "nonpayable",
            "type": "function"
        },
        {
            "inputs": [
                {
                    "internalType": "address",
                    "name": "owner",
                    "type": "address"
                }
            ],
            "name": "balanceOf",
            "outputs": [
                {
                    "internalType": "uint256",
                    "name": "",
                    "type": "uint256"
                }
            ],
            "stateMutability": "view",
            "type": "function"
        },
        {
            "inputs": [
                {
                    "internalType": "string",
                    "name": "",
                    "type": "string"
                }
            ],
            "name": "domains",
            "outputs": [
                {
                    "internalType": "address",
                    "name": "",
                    "type": "address"
                }
            ],
            "stateMutability": "view",
            "type": "function"
        },
        {
            "inputs": [
                {
                    "internalType": "string",
                    "name": "name",
                    "type": "string"
                }
            ],
            "name": "getAddress",
            "outputs": [
                {
                    "internalType": "address",
                    "name": "",
                    "type": "address"
                }
            ],
            "stateMutability": "view",
            "type": "function"
        },
        {
            "inputs": [
                {
                    "internalType": "uint256",
                    "name": "tokenId",
                    "type": "uint256"
                }
            ],
            "name": "getApproved",
            "outputs": [
                {
                    "internalType": "address",
                    "name": "",
                    "type": "address"
                }
            ],
            "stateMutability": "view",
            "type": "function"
        },
        {
            "inputs": [
                {
                    "internalType": "string",
                    "name": "name",
                    "type": "string"
                }
            ],
            "name": "getRecord",
            "outputs": [
                {
                    "internalType": "string",
                    "name": "",
                    "type": "string"
                }
            ],
            "stateMutability": "view",
            "type": "function"
        },
        {
            "inputs": [
                {
                    "internalType": "address",
                    "name": "owner",
                    "type": "address"
                },
                {
                    "internalType": "address",
                    "name": "operator",
                    "type": "address"
                }
            ],
            "name": "isApprovedForAll",
            "outputs": [
                {
                    "internalType": "bool",
                    "name": "",
                    "type": "bool"
                }
            ],
            "stateMutability": "view",
            "type": "function"
        },
        {
            "inputs": [],
            "name": "name",
            "outputs": [
                {
                    "internalType": "string",
                    "name": "",
                    "type": "string"
                }
            ],
            "stateMutability": "view",
            "type": "function"
        },
        {
            "inputs": [
                {
                    "internalType": "uint256",
                    "name": "tokenId",
                    "type": "uint256"
                }
            ],
            "name": "ownerOf",
            "outputs": [
                {
                    "internalType": "address",
                    "name": "",
                    "type": "address"
                }
            ],
            "stateMutability": "view",
            "type": "function"
        },
        {
            "inputs": [
                {
                    "internalType": "string",
                    "name": "name",
                    "type": "string"
                }
            ],
            "name": "price",
            "outputs": [
                {
                    "internalType": "uint256",
                    "name": "",
                    "type": "uint256"
                }
            ],
            "stateMutability": "pure",
            "type": "function"
        },
        {
            "inputs": [
                {
                    "internalType": "string",
                    "name": "",
                    "type": "string"
                }
            ],
            "name": "records",
            "outputs": [
                {
                    "internalType": "string",
                    "name": "",
                    "type": "string"
                }
            ],
            "stateMutability": "view",
            "type": "function"
        },
        {
            "inputs": [
                {
                    "internalType": "string",
                    "name": "name",
                    "type": "string"
                }
            ],
            "name": "register",
            "outputs": [],
            "stateMutability": "payable",
            "type": "function"
        },
        {
            "inputs": [
                {
                    "internalType": "address",
                    "name": "from",
                    "type": "address"
                },
                {
                    "internalType": "address",
                    "name": "to",
                    "type": "address"
                },
                {
                    "internalType": "uint256",
                    "name": "tokenId",
                    "type": "uint256"
                }
            ],
            "name": "safeTransferFrom",
            "outputs": [],
            "stateMutability": "nonpayable",
            "type": "function"
        },
        {
            "inputs": [
                {
                    "internalType": "address",
                    "name": "from",
                    "type": "address"
                },
                {
                    "internalType": "address",
                    "name": "to",
                    "type": "address"
                },
                {
                    "internalType": "uint256",
                    "name": "tokenId",
                    "type": "uint256"
                },
                {
                    "internalType": "bytes",
                    "name": "_data",
                    "type": "bytes"
                }
            ],
            "name": "safeTransferFrom",
            "outputs": [],
            "stateMutability": "nonpayable",
            "type": "function"
        },
        {
            "inputs": [
                {
                    "internalType": "address",
                    "name": "operator",
                    "type": "address"
                },
                {
                    "internalType": "bool",
                    "name": "approved",
                    "type": "bool"
                }
            ],
            "name": "setApprovalForAll",
            "outputs": [],
            "stateMutability": "nonpayable",
            "type": "function"
        },
        {
            "inputs": [
                {
                    "internalType": "string",
                    "name": "name",
                    "type": "string"
                },
                {
                    "internalType": "string",
                    "name": "record",
                    "type": "string"
                }
            ],
            "name": "setRecord",
            "outputs": [],
            "stateMutability": "nonpayable",
            "type": "function"
        },
        {
            "inputs": [
                {
                    "internalType": "bytes4",
                    "name": "interfaceId",
                    "type": "bytes4"
                }
            ],
            "name": "supportsInterface",
            "outputs": [
                {
                    "internalType": "bool",
                    "name": "",
                    "type": "bool"
                }
            ],
            "stateMutability": "view",
            "type": "function"
        },
        {
            "inputs": [],
            "name": "symbol",
            "outputs": [
                {
                    "internalType": "string",
                    "name": "",
                    "type": "string"
                }
            ],
            "stateMutability": "view",
            "type": "function"
        },
        {
            "inputs": [],
            "name": "tld",
            "outputs": [
                {
                    "internalType": "string",
                    "name": "",
                    "type": "string"
                }
            ],
            "stateMutability": "view",
            "type": "function"
        },
        {
            "inputs": [
                {
                    "internalType": "uint256",
                    "name": "tokenId",
                    "type": "uint256"
                }
            ],
            "name": "tokenURI",
            "outputs": [
                {
                    "internalType": "string",
                    "name": "",
                    "type": "string"
                }
            ],
            "stateMutability": "view",
            "type": "function"
        },
        {
            "inputs": [
                {
                    "internalType": "address",
                    "name": "from",
                    "type": "address"
                },
                {
                    "internalType": "address",
                    "name": "to",
                    "type": "address"
                },
                {
                    "internalType": "uint256",
                    "name": "tokenId",
                    "type": "uint256"
                }
            ],
            "name": "transferFrom",
            "outputs": [],
            "stateMutability": "nonpayable",
            "type": "function"
        }
    ],
    "bytecode": "0x6080604052604051806108a0016040528061086b815260200162004aa861086b9139600b90805190602001906200003892919062000287565b506040518060400160405280600d81526020017f3c2f746578743e3c2f7376673e00000000000000000000000000000000000000815250600c90805190602001906200008692919062000287565b5060405162005313380380620053138339818101604052810190620000ac9190620004d4565b6040518060400160405280601381526020017f47696e676572204e616d652053657276696365000000000000000000000000008152506040518060400160405280600381526020017f474753000000000000000000000000000000000000000000000000000000000081525081600090805190602001906200013092919062000287565b5080600190805190602001906200014992919062000287565b50505080600a90805190602001906200016492919062000287565b50620001b16040518060400160405280601881526020017f2573206e616d652073657276696365206465706c6f796564000000000000000081525082620001b860201b620015781760201c565b5062000622565b6200025a8282604051602401620001d192919062000582565b6040516020818303038152906040527f4b5c4277000000000000000000000000000000000000000000000000000000007bffffffffffffffffffffffffffffffffffffffffffffffffffffffff19166020820180517bffffffffffffffffffffffffffffffffffffffffffffffffffffffff83818316178352505050506200025e60201b60201c565b5050565b60008151905060006a636f6e736f6c652e6c6f679050602083016000808483855afa5050505050565b8280546200029590620005ec565b90600052602060002090601f016020900481019282620002b9576000855562000305565b82601f10620002d457805160ff191683800117855562000305565b8280016001018555821562000305579182015b8281111562000304578251825591602001919060010190620002e7565b5b50905062000314919062000318565b5090565b5b808211156200033357600081600090555060010162000319565b5090565b6000604051905090565b600080fd5b600080fd5b600080fd5b600080fd5b6000601f19601f8301169050919050565b7f4e487b7100000000000000000000000000000000000000000000000000000000600052604160045260246000fd5b620003a08262000355565b810181811067ffffffffffffffff82111715620003c257620003c162000366565b5b80604052505050565b6000620003d762000337565b9050620003e5828262000395565b919050565b600067ffffffffffffffff82111562000408576200040762000366565b5b620004138262000355565b9050602081019050919050565b60005b838110156200044057808201518184015260208101905062000423565b8381111562000450576000848401525b50505050565b60006200046d6200046784620003ea565b620003cb565b9050828152602081018484840111156200048c576200048b62000350565b5b6200049984828562000420565b509392505050565b600082601f830112620004b957620004b86200034b565b5b8151620004cb84826020860162000456565b91505092915050565b600060208284031215620004ed57620004ec62000341565b5b600082015167ffffffffffffffff8111156200050e576200050d62000346565b5b6200051c84828501620004a1565b91505092915050565b600081519050919050565b600082825260208201905092915050565b60006200054e8262000525565b6200055a818562000530565b93506200056c81856020860162000420565b620005778162000355565b840191505092915050565b600060408201905081810360008301526200059e818562000541565b90508181036020830152620005b4818462000541565b90509392505050565b7f4e487b7100000000000000000000000000000000000000000000000000000000600052602260045260246000fd5b600060028204905060018216806200060557607f821691505b602082108114156200061c576200061b620005bd565b5b50919050565b61447680620006326000396000f3fe60806040526004361061012a5760003560e01c80636352211e116100ab578063bf40fac11161006f578063bf40fac114610428578063c1880a9814610465578063c87b56dd1461048e578063e985e9c5146104cb578063f2c298be14610508578063fe2c6198146105245761012a565b80636352211e1461033157806370a082311461036e57806395d89b41146103ab578063a22cb465146103d6578063b88d4fde146103ff5761012a565b806323b872dd116100f257806323b872dd1461023a57806326449235146102635780632d551432146102a057806342842e0e146102cb578063541e771d146102f45761012a565b806301ffc9a71461012f57806306fdde031461016c578063081812fc14610197578063095ea7b3146101d457806311dd8845146101fd575b600080fd5b34801561013b57600080fd5b50610156600480360381019061015191906129be565b610561565b6040516101639190612a06565b60405180910390f35b34801561017857600080fd5b50610181610643565b60405161018e9190612aba565b60405180910390f35b3480156101a357600080fd5b506101be60048036038101906101b99190612b12565b6106d5565b6040516101cb9190612b80565b60405180910390f35b3480156101e057600080fd5b506101fb60048036038101906101f69190612bc7565b61075a565b005b34801561020957600080fd5b50610224600480360381019061021f9190612c6c565b610872565b6040516102319190612aba565b60405180910390f35b34801561024657600080fd5b50610261600480360381019061025c9190612cb9565b610925565b005b34801561026f57600080fd5b5061028a60048036038101906102859190612e3c565b610985565b6040516102979190612b80565b60405180910390f35b3480156102ac57600080fd5b506102b56109ce565b6040516102c29190612aba565b60405180910390f35b3480156102d757600080fd5b506102f260048036038101906102ed9190612cb9565b610a5c565b005b34801561030057600080fd5b5061031b60048036038101906103169190612e3c565b610a7c565b6040516103289190612aba565b60405180910390f35b34801561033d57600080fd5b5061035860048036038101906103539190612b12565b610b32565b6040516103659190612b80565b60405180910390f35b34801561037a57600080fd5b5061039560048036038101906103909190612e85565b610be4565b6040516103a29190612ec1565b60405180910390f35b3480156103b757600080fd5b506103c0610c9c565b6040516103cd9190612aba565b60405180910390f35b3480156103e257600080fd5b506103fd60048036038101906103f89190612f08565b610d2e565b005b34801561040b57600080fd5b5061042660048036038101906104219190612fe9565b610d44565b005b34801561043457600080fd5b5061044f600480360381019061044a9190612c6c565b610da6565b60405161045c9190612b80565b60405180910390f35b34801561047157600080fd5b5061048c6004803603810190610487919061306c565b610df1565b005b34801561049a57600080fd5b506104b560048036038101906104b09190612b12565b610ed5565b6040516104c29190612aba565b60405180910390f35b3480156104d757600080fd5b506104f260048036038101906104ed91906130ed565b611027565b6040516104ff9190612a06565b60405180910390f35b610522600480360381019061051d9190612c6c565b6110bb565b005b34801561053057600080fd5b5061054b60048036038101906105469190612c6c565b6114d2565b6040516105589190612ec1565b60405180910390f35b60007f80ac58cd000000000000000000000000000000000000000000000000000000007bffffffffffffffffffffffffffffffffffffffffffffffffffffffff1916827bffffffffffffffffffffffffffffffffffffffffffffffffffffffff1916148061062c57507f5b5e139f000000000000000000000000000000000000000000000000000000007bffffffffffffffffffffffffffffffffffffffffffffffffffffffff1916827bffffffffffffffffffffffffffffffffffffffffffffffffffffffff1916145b8061063c575061063b82611614565b5b9050919050565b6060600080546106529061315c565b80601f016020809104026020016040519081016040528092919081815260200182805461067e9061315c565b80156106cb5780601f106106a0576101008083540402835291602001916106cb565b820191906000526020600020905b8154815290600101906020018083116106ae57829003601f168201915b5050505050905090565b60006106e08261167e565b61071f576040517f08c379a000000000000000000000000000000000000000000000000000000000815260040161071690613200565b60405180910390fd5b6004600083815260200190815260200160002060009054906101000a900473ffffffffffffffffffffffffffffffffffffffff169050919050565b600061076582610b32565b90508073ffffffffffffffffffffffffffffffffffffffff168373ffffffffffffffffffffffffffffffffffffffff1614156107d6576040517f08c379a00000000000000000000000000000000000000000000000000000000081526004016107cd90613292565b60405180910390fd5b8073ffffffffffffffffffffffffffffffffffffffff166107f56116ea565b73ffffffffffffffffffffffffffffffffffffffff16148061082457506108238161081e6116ea565b611027565b5b610863576040517f08c379a000000000000000000000000000000000000000000000000000000000815260040161085a90613324565b60405180910390fd5b61086d83836116f2565b505050565b606060088383604051610886929190613374565b9081526020016040518091039020805461089f9061315c565b80601f01602080910402602001604051908101604052809291908181526020018280546108cb9061315c565b80156109185780601f106108ed57610100808354040283529160200191610918565b820191906000526020600020905b8154815290600101906020018083116108fb57829003601f168201915b5050505050905092915050565b6109366109306116ea565b826117ab565b610975576040517f08c379a000000000000000000000000000000000000000000000000000000000815260040161096c906133ff565b60405180910390fd5b610980838383611889565b505050565b6007818051602081018201805184825260208301602085012081835280955050505050506000915054906101000a900473ffffffffffffffffffffffffffffffffffffffff1681565b600a80546109db9061315c565b80601f0160208091040260200160405190810160405280929190818152602001828054610a079061315c565b8015610a545780601f10610a2957610100808354040283529160200191610a54565b820191906000526020600020905b815481529060010190602001808311610a3757829003601f168201915b505050505081565b610a7783838360405180602001604052806000815250610d44565b505050565b6008818051602081018201805184825260208301602085012081835280955050505050506000915090508054610ab19061315c565b80601f0160208091040260200160405190810160405280929190818152602001828054610add9061315c565b8015610b2a5780601f10610aff57610100808354040283529160200191610b2a565b820191906000526020600020905b815481529060010190602001808311610b0d57829003601f168201915b505050505081565b6000806002600084815260200190815260200160002060009054906101000a900473ffffffffffffffffffffffffffffffffffffffff169050600073ffffffffffffffffffffffffffffffffffffffff168173ffffffffffffffffffffffffffffffffffffffff161415610bdb576040517f08c379a0000000000000000000000000000000000000000000000000000000008152600401610bd290613491565b60405180910390fd5b80915050919050565b60008073ffffffffffffffffffffffffffffffffffffffff168273ffffffffffffffffffffffffffffffffffffffff161415610c55576040517f08c379a0000000000000000000000000000000000000000000000000000000008152600401610c4c90613523565b60405180910390fd5b600360008373ffffffffffffffffffffffffffffffffffffffff1673ffffffffffffffffffffffffffffffffffffffff168152602001908152602001600020549050919050565b606060018054610cab9061315c565b80601f0160208091040260200160405190810160405280929190818152602001828054610cd79061315c565b8015610d245780601f10610cf957610100808354040283529160200191610d24565b820191906000526020600020905b815481529060010190602001808311610d0757829003601f168201915b5050505050905090565b610d40610d396116ea565b8383611af0565b5050565b610d55610d4f6116ea565b836117ab565b610d94576040517f08c379a0000000000000000000000000000000000000000000000000000000008152600401610d8b906133ff565b60405180910390fd5b610da084848484611c5d565b50505050565b600060078383604051610dba929190613374565b908152602001604051809103902060009054906101000a900473ffffffffffffffffffffffffffffffffffffffff16905092915050565b3373ffffffffffffffffffffffffffffffffffffffff1660078585604051610e1a929190613374565b908152602001604051809103902060009054906101000a900473ffffffffffffffffffffffffffffffffffffffff1673ffffffffffffffffffffffffffffffffffffffff1614610e9f576040517f08c379a0000000000000000000000000000000000000000000000000000000008152600401610e96906135b5565b60405180910390fd5b818160088686604051610eb3929190613374565b90815260200160405180910390209190610ece929190612829565b5050505050565b6060610ee08261167e565b610f1f576040517f08c379a0000000000000000000000000000000000000000000000000000000008152600401610f1690613647565b60405180910390fd5b6000600660008481526020019081526020016000208054610f3f9061315c565b80601f0160208091040260200160405190810160405280929190818152602001828054610f6b9061315c565b8015610fb85780601f10610f8d57610100808354040283529160200191610fb8565b820191906000526020600020905b815481529060010190602001808311610f9b57829003601f168201915b505050505090506000610fc9611cb9565b9050600081511415610fdf578192505050611022565b600082511115611014578082604051602001610ffc929190613698565b60405160208183030381529060405292505050611022565b61101d84611cd0565b925050505b919050565b6000600560008473ffffffffffffffffffffffffffffffffffffffff1673ffffffffffffffffffffffffffffffffffffffff16815260200190815260200160002060008373ffffffffffffffffffffffffffffffffffffffff1673ffffffffffffffffffffffffffffffffffffffff16815260200190815260200160002060009054906101000a900460ff16905092915050565b600073ffffffffffffffffffffffffffffffffffffffff16600783836040516110e5929190613374565b908152602001604051809103902060009054906101000a900473ffffffffffffffffffffffffffffffffffffffff1673ffffffffffffffffffffffffffffffffffffffff161461116a576040517f08c379a000000000000000000000000000000000000000000000000000000000815260040161116190613708565b60405180910390fd5b600061117683836114d2565b9050803410156111bb576040517f08c379a00000000000000000000000000000000000000000000000000000000081526004016111b290613774565b60405180910390fd5b60008383600a6040516020016111d393929190613874565b60405160208183030381529060405290506000600b82600c6040516020016111fd939291906138a5565b6040516020818303038152906040529050600061121a6009611d77565b9050600061126b87878080601f016020809104026020016040519081016040528093929190818152602001838380828437600081840152601f19601f82011690508083019250505050505050611d85565b9050600061127882611f3a565b905061136c6040518060600160405280603181526020016143976031913989898080601f016020809104026020016040519081016040528093929190818152602001838380828437600081840152601f19601f82011690508083019250505050505050600a80546112e89061315c565b80601f01602080910402602001604051908101604052809291908181526020018280546113149061315c565b80156113615780601f1061133657610100808354040283529160200191611361565b820191906000526020600020905b81548152906001019060200180831161134457829003601f168201915b50505050508661209b565b60006113a28661137b8761213d565b8460405160200161138e93929190613a52565b60405160208183030381529060405261213d565b90506000816040516020016113b79190613afb565b60405160208183030381529060405290506113e960405180606001604052806039815260200161435e603991396122d5565b6114286040518060400160405280600e81526020017f46696e616c20746f6b656e55524900000000000000000000000000000000000081525082611578565b6114496040518060600160405280603981526020016143c8603991396122d5565b611453338661236e565b61145d858261238c565b3360078b8b604051611470929190613374565b908152602001604051809103902060006101000a81548173ffffffffffffffffffffffffffffffffffffffff021916908373ffffffffffffffffffffffffffffffffffffffff1602179055506114c66009612400565b50505050505050505050565b60008061152284848080601f016020809104026020016040519081016040528093929190818152602001838380828437600081840152601f19601f82011690508083019250505050505050611d85565b90506000811161153157600080fd5b600381141561154b576706f05b59d3b20000915050611572565b600481141561156557670429d069189e0000915050611572565b67016345785d8a00009150505b92915050565b611610828260405160240161158e929190613b1d565b6040516020818303038152906040527f4b5c4277000000000000000000000000000000000000000000000000000000007bffffffffffffffffffffffffffffffffffffffffffffffffffffffff19166020820180517bffffffffffffffffffffffffffffffffffffffffffffffffffffffff8381831617835250505050612416565b5050565b60007f01ffc9a7000000000000000000000000000000000000000000000000000000007bffffffffffffffffffffffffffffffffffffffffffffffffffffffff1916827bffffffffffffffffffffffffffffffffffffffffffffffffffffffff1916149050919050565b60008073ffffffffffffffffffffffffffffffffffffffff166002600084815260200190815260200160002060009054906101000a900473ffffffffffffffffffffffffffffffffffffffff1673ffffffffffffffffffffffffffffffffffffffff1614159050919050565b600033905090565b816004600083815260200190815260200160002060006101000a81548173ffffffffffffffffffffffffffffffffffffffff021916908373ffffffffffffffffffffffffffffffffffffffff160217905550808273ffffffffffffffffffffffffffffffffffffffff1661176583610b32565b73ffffffffffffffffffffffffffffffffffffffff167f8c5be1e5ebec7d5bd14f71427d1e84f3dd0314c0f7b2291e5b200ac8c7c3b92560405160405180910390a45050565b60006117b68261167e565b6117f5576040517f08c379a00000000000000000000000000000000000000000000000000000000081526004016117ec90613bc6565b60405180910390fd5b600061180083610b32565b90508073ffffffffffffffffffffffffffffffffffffffff168473ffffffffffffffffffffffffffffffffffffffff16148061184257506118418185611027565b5b8061188057508373ffffffffffffffffffffffffffffffffffffffff16611868846106d5565b73ffffffffffffffffffffffffffffffffffffffff16145b91505092915050565b8273ffffffffffffffffffffffffffffffffffffffff166118a982610b32565b73ffffffffffffffffffffffffffffffffffffffff16146118ff576040517f08c379a00000000000000000000000000000000000000000000000000000000081526004016118f690613c58565b60405180910390fd5b600073ffffffffffffffffffffffffffffffffffffffff168273ffffffffffffffffffffffffffffffffffffffff16141561196f576040517f08c379a000000000000000000000000000000000000000000000000000000000815260040161196690613cea565b60405180910390fd5b61197a83838361243f565b6119856000826116f2565b6001600360008573ffffffffffffffffffffffffffffffffffffffff1673ffffffffffffffffffffffffffffffffffffffff16815260200190815260200160002060008282546119d59190613d39565b925050819055506001600360008473ffffffffffffffffffffffffffffffffffffffff1673ffffffffffffffffffffffffffffffffffffffff1681526020019081526020016000206000828254611a2c9190613d6d565b92505081905550816002600083815260200190815260200160002060006101000a81548173ffffffffffffffffffffffffffffffffffffffff021916908373ffffffffffffffffffffffffffffffffffffffff160217905550808273ffffffffffffffffffffffffffffffffffffffff168473ffffffffffffffffffffffffffffffffffffffff167fddf252ad1be2c89b69c2b068fc378daa952ba7f163c4a11628f55a4df523b3ef60405160405180910390a4611aeb838383612444565b505050565b8173ffffffffffffffffffffffffffffffffffffffff168373ffffffffffffffffffffffffffffffffffffffff161415611b5f576040517f08c379a0000000000000000000000000000000000000000000000000000000008152600401611b5690613e0f565b60405180910390fd5b80600560008573ffffffffffffffffffffffffffffffffffffffff1673ffffffffffffffffffffffffffffffffffffffff16815260200190815260200160002060008473ffffffffffffffffffffffffffffffffffffffff1673ffffffffffffffffffffffffffffffffffffffff16815260200190815260200160002060006101000a81548160ff0219169083151502179055508173ffffffffffffffffffffffffffffffffffffffff168373ffffffffffffffffffffffffffffffffffffffff167f17307eab39ab6107e8899845ad3d59bd9653f200f220920489ca2b5937696c3183604051611c509190612a06565b60405180910390a3505050565b611c68848484611889565b611c7484848484612449565b611cb3576040517f08c379a0000000000000000000000000000000000000000000000000000000008152600401611caa90613ea1565b60405180910390fd5b50505050565b606060405180602001604052806000815250905090565b6060611cdb8261167e565b611d1a576040517f08c379a0000000000000000000000000000000000000000000000000000000008152600401611d1190613f33565b60405180910390fd5b6000611d24611cb9565b90506000815111611d445760405180602001604052806000815250611d6f565b80611d4e84611f3a565b604051602001611d5f929190613698565b6040516020818303038152906040525b915050919050565b600081600001549050919050565b60008060008084519050600092505b80821015611f2f576000858381518110611db157611db0613f53565b5b602001015160f81c60f81b9050608060f81b817effffffffffffffffffffffffffffffffffffffffffffffffffffffffffffff19161015611e0057600183611df99190613d6d565b9250611f1b565b60e060f81b817effffffffffffffffffffffffffffffffffffffffffffffffffffffffffffff19161015611e4257600283611e3b9190613d6d565b9250611f1a565b60f060f81b817effffffffffffffffffffffffffffffffffffffffffffffffffffffffffffff19161015611e8457600383611e7d9190613d6d565b9250611f19565b60f8801b817effffffffffffffffffffffffffffffffffffffffffffffffffffffffffffff19161015611ec557600483611ebe9190613d6d565b9250611f18565b60fc60f81b817effffffffffffffffffffffffffffffffffffffffffffffffffffffffffffff19161015611f0757600583611f009190613d6d565b9250611f17565b600683611f149190613d6d565b92505b5b5b5b5b508280611f2790613f82565b935050611d94565b829350505050919050565b60606000821415611f82576040518060400160405280600181526020017f30000000000000000000000000000000000000000000000000000000000000008152509050612096565b600082905060005b60008214611fb4578080611f9d90613f82565b915050600a82611fad9190613ffa565b9150611f8a565b60008167ffffffffffffffff811115611fd057611fcf612d11565b5b6040519080825280601f01601f1916602001820160405280156120025781602001600182028036833780820191505090505b5090505b6000851461208f5760018261201b9190613d39565b9150600a8561202a919061402b565b60306120369190613d6d565b60f81b81838151811061204c5761204b613f53565b5b60200101907effffffffffffffffffffffffffffffffffffffffffffffffffffffffffffff1916908160001a905350600a856120889190613ffa565b9450612006565b8093505050505b919050565b612137848484846040516024016120b5949392919061405c565b6040516020818303038152906040527f9fd009f5000000000000000000000000000000000000000000000000000000007bffffffffffffffffffffffffffffffffffffffffffffffffffffffff19166020820180517bffffffffffffffffffffffffffffffffffffffffffffffffffffffff8381831617835250505050612416565b50505050565b6060600082519050600081141561216657604051806020016040528060008152509150506122d0565b600060036002836121779190613d6d565b6121819190613ffa565b600461218d91906140b6565b9050600060208261219e9190613d6d565b67ffffffffffffffff8111156121b7576121b6612d11565b5b6040519080825280601f01601f1916602001820160405280156121e95781602001600182028036833780820191505090505b5090506000604051806060016040528060408152602001614401604091399050600181016020830160005b8681101561228d5760038101905062ffffff818a015116603f8160121c168401518060081b905060ff603f83600c1c1686015116810190508060081b905060ff603f8360061c1686015116810190508060081b905060ff603f831686015116810190508060e01b90508084526004840193505050612214565b5060038606600181146122a757600281146122b7576122c2565b613d3d60f01b60028303526122c2565b603d60f81b60018303525b508484525050819450505050505b919050565b61236b816040516024016122e99190612aba565b6040516020818303038152906040527f41304fac000000000000000000000000000000000000000000000000000000007bffffffffffffffffffffffffffffffffffffffffffffffffffffffff19166020820180517bffffffffffffffffffffffffffffffffffffffffffffffffffffffff8381831617835250505050612416565b50565b6123888282604051806020016040528060008152506125d1565b5050565b6123958261167e565b6123d4576040517f08c379a00000000000000000000000000000000000000000000000000000000081526004016123cb90614182565b60405180910390fd5b806006600084815260200190815260200160002090805190602001906123fb9291906128af565b505050565b6001816000016000828254019250508190555050565b60008151905060006a636f6e736f6c652e6c6f679050602083016000808483855afa5050505050565b505050565b505050565b600061246a8473ffffffffffffffffffffffffffffffffffffffff1661262c565b156125c4578373ffffffffffffffffffffffffffffffffffffffff1663150b7a026124936116ea565b8786866040518563ffffffff1660e01b81526004016124b594939291906141f7565b6020604051808303816000875af19250505080156124f157506040513d601f19601f820116820180604052508101906124ee9190614258565b60015b612574573d8060008114612521576040519150601f19603f3d011682016040523d82523d6000602084013e612526565b606091505b5060008151141561256c576040517f08c379a000000000000000000000000000000000000000000000000000000000815260040161256390613ea1565b60405180910390fd5b805181602001fd5b63150b7a0260e01b7bffffffffffffffffffffffffffffffffffffffffffffffffffffffff1916817bffffffffffffffffffffffffffffffffffffffffffffffffffffffff1916149150506125c9565b600190505b949350505050565b6125db838361264f565b6125e86000848484612449565b612627576040517f08c379a000000000000000000000000000000000000000000000000000000000815260040161261e90613ea1565b60405180910390fd5b505050565b6000808273ffffffffffffffffffffffffffffffffffffffff163b119050919050565b600073ffffffffffffffffffffffffffffffffffffffff168273ffffffffffffffffffffffffffffffffffffffff1614156126bf576040517f08c379a00000000000000000000000000000000000000000000000000000000081526004016126b6906142d1565b60405180910390fd5b6126c88161167e565b15612708576040517f08c379a00000000000000000000000000000000000000000000000000000000081526004016126ff9061433d565b60405180910390fd5b6127146000838361243f565b6001600360008473ffffffffffffffffffffffffffffffffffffffff1673ffffffffffffffffffffffffffffffffffffffff16815260200190815260200160002060008282546127649190613d6d565b92505081905550816002600083815260200190815260200160002060006101000a81548173ffffffffffffffffffffffffffffffffffffffff021916908373ffffffffffffffffffffffffffffffffffffffff160217905550808273ffffffffffffffffffffffffffffffffffffffff16600073ffffffffffffffffffffffffffffffffffffffff167fddf252ad1be2c89b69c2b068fc378daa952ba7f163c4a11628f55a4df523b3ef60405160405180910390a461282560008383612444565b5050565b8280546128359061315c565b90600052602060002090601f016020900481019282612857576000855561289e565b82601f1061287057803560ff191683800117855561289e565b8280016001018555821561289e579182015b8281111561289d578235825591602001919060010190612882565b5b5090506128ab9190612935565b5090565b8280546128bb9061315c565b90600052602060002090601f0160209004810192826128dd5760008555612924565b82601f106128f657805160ff1916838001178555612924565b82800160010185558215612924579182015b82811115612923578251825591602001919060010190612908565b5b5090506129319190612935565b5090565b5b8082111561294e576000816000905550600101612936565b5090565b6000604051905090565b600080fd5b600080fd5b60007fffffffff0000000000000000000000000000000000000000000000000000000082169050919050565b61299b81612966565b81146129a657600080fd5b50565b6000813590506129b881612992565b92915050565b6000602082840312156129d4576129d361295c565b5b60006129e2848285016129a9565b91505092915050565b60008115159050919050565b612a00816129eb565b82525050565b6000602082019050612a1b60008301846129f7565b92915050565b600081519050919050565b600082825260208201905092915050565b60005b83811015612a5b578082015181840152602081019050612a40565b83811115612a6a576000848401525b50505050565b6000601f19601f8301169050919050565b6000612a8c82612a21565b612a968185612a2c565b9350612aa6818560208601612a3d565b612aaf81612a70565b840191505092915050565b60006020820190508181036000830152612ad48184612a81565b905092915050565b6000819050919050565b612aef81612adc565b8114612afa57600080fd5b50565b600081359050612b0c81612ae6565b92915050565b600060208284031215612b2857612b2761295c565b5b6000612b3684828501612afd565b91505092915050565b600073ffffffffffffffffffffffffffffffffffffffff82169050919050565b6000612b6a82612b3f565b9050919050565b612b7a81612b5f565b82525050565b6000602082019050612b956000830184612b71565b92915050565b612ba481612b5f565b8114612baf57600080fd5b50565b600081359050612bc181612b9b565b92915050565b60008060408385031215612bde57612bdd61295c565b5b6000612bec85828601612bb2565b9250506020612bfd85828601612afd565b9150509250929050565b600080fd5b600080fd5b600080fd5b60008083601f840112612c2c57612c2b612c07565b5b8235905067ffffffffffffffff811115612c4957612c48612c0c565b5b602083019150836001820283011115612c6557612c64612c11565b5b9250929050565b60008060208385031215612c8357612c8261295c565b5b600083013567ffffffffffffffff811115612ca157612ca0612961565b5b612cad85828601612c16565b92509250509250929050565b600080600060608486031215612cd257612cd161295c565b5b6000612ce086828701612bb2565b9350506020612cf186828701612bb2565b9250506040612d0286828701612afd565b9150509250925092565b600080fd5b7f4e487b7100000000000000000000000000000000000000000000000000000000600052604160045260246000fd5b612d4982612a70565b810181811067ffffffffffffffff82111715612d6857612d67612d11565b5b80604052505050565b6000612d7b612952565b9050612d878282612d40565b919050565b600067ffffffffffffffff821115612da757612da6612d11565b5b612db082612a70565b9050602081019050919050565b82818337600083830152505050565b6000612ddf612dda84612d8c565b612d71565b905082815260208101848484011115612dfb57612dfa612d0c565b5b612e06848285612dbd565b509392505050565b600082601f830112612e2357612e22612c07565b5b8135612e33848260208601612dcc565b91505092915050565b600060208284031215612e5257612e5161295c565b5b600082013567ffffffffffffffff811115612e7057612e6f612961565b5b612e7c84828501612e0e565b91505092915050565b600060208284031215612e9b57612e9a61295c565b5b6000612ea984828501612bb2565b91505092915050565b612ebb81612adc565b82525050565b6000602082019050612ed66000830184612eb2565b92915050565b612ee5816129eb565b8114612ef057600080fd5b50565b600081359050612f0281612edc565b92915050565b60008060408385031215612f1f57612f1e61295c565b5b6000612f2d85828601612bb2565b9250506020612f3e85828601612ef3565b9150509250929050565b600067ffffffffffffffff821115612f6357612f62612d11565b5b612f6c82612a70565b9050602081019050919050565b6000612f8c612f8784612f48565b612d71565b905082815260208101848484011115612fa857612fa7612d0c565b5b612fb3848285612dbd565b509392505050565b600082601f830112612fd057612fcf612c07565b5b8135612fe0848260208601612f79565b91505092915050565b600080600080608085870312156130035761300261295c565b5b600061301187828801612bb2565b945050602061302287828801612bb2565b935050604061303387828801612afd565b925050606085013567ffffffffffffffff81111561305457613053612961565b5b61306087828801612fbb565b91505092959194509250565b600080600080604085870312156130865761308561295c565b5b600085013567ffffffffffffffff8111156130a4576130a3612961565b5b6130b087828801612c16565b9450945050602085013567ffffffffffffffff8111156130d3576130d2612961565b5b6130df87828801612c16565b925092505092959194509250565b600080604083850312156131045761310361295c565b5b600061311285828601612bb2565b925050602061312385828601612bb2565b9150509250929050565b7f4e487b7100000000000000000000000000000000000000000000000000000000600052602260045260246000fd5b6000600282049050600182168061317457607f821691505b602082108114156131885761318761312d565b5b50919050565b7f4552433732313a20617070726f76656420717565727920666f72206e6f6e657860008201527f697374656e7420746f6b656e0000000000000000000000000000000000000000602082015250565b60006131ea602c83612a2c565b91506131f58261318e565b604082019050919050565b60006020820190508181036000830152613219816131dd565b9050919050565b7f4552433732313a20617070726f76616c20746f2063757272656e74206f776e6560008201527f7200000000000000000000000000000000000000000000000000000000000000602082015250565b600061327c602183612a2c565b915061328782613220565b604082019050919050565b600060208201905081810360008301526132ab8161326f565b9050919050565b7f4552433732313a20617070726f76652063616c6c6572206973206e6f74206f7760008201527f6e6572206e6f7220617070726f76656420666f7220616c6c0000000000000000602082015250565b600061330e603883612a2c565b9150613319826132b2565b604082019050919050565b6000602082019050818103600083015261333d81613301565b9050919050565b600081905092915050565b600061335b8385613344565b9350613368838584612dbd565b82840190509392505050565b600061338182848661334f565b91508190509392505050565b7f4552433732313a207472616e736665722063616c6c6572206973206e6f74206f60008201527f776e6572206e6f7220617070726f766564000000000000000000000000000000602082015250565b60006133e9603183612a2c565b91506133f48261338d565b604082019050919050565b60006020820190508181036000830152613418816133dc565b9050919050565b7f4552433732313a206f776e657220717565727920666f72206e6f6e657869737460008201527f656e7420746f6b656e0000000000000000000000000000000000000000000000602082015250565b600061347b602983612a2c565b91506134868261341f565b604082019050919050565b600060208201905081810360008301526134aa8161346e565b9050919050565b7f4552433732313a2062616c616e636520717565727920666f7220746865207a6560008201527f726f206164647265737300000000000000000000000000000000000000000000602082015250565b600061350d602a83612a2c565b9150613518826134b1565b604082019050919050565b6000602082019050818103600083015261353c81613500565b9050919050565b7f43616e206e6f742073746f7265207265636f726420666f7220756e6b6e6f776e60008201527f2061646472657373000000000000000000000000000000000000000000000000602082015250565b600061359f602883612a2c565b91506135aa82613543565b604082019050919050565b600060208201905081810360008301526135ce81613592565b9050919050565b7f45524337323155524953746f726167653a2055524920717565727920666f722060008201527f6e6f6e6578697374656e7420746f6b656e000000000000000000000000000000602082015250565b6000613631603183612a2c565b915061363c826135d5565b604082019050919050565b6000602082019050818103600083015261366081613624565b9050919050565b600061367282612a21565b61367c8185613344565b935061368c818560208601612a3d565b80840191505092915050565b60006136a48285613667565b91506136b08284613667565b91508190509392505050565b7f646f6d61696e20616c726561647920657869737420666f722061646472657373600082015250565b60006136f2602083612a2c565b91506136fd826136bc565b602082019050919050565b60006020820190508181036000830152613721816136e5565b9050919050565b7f4e6f7420656e6f756768206d617469632e2e0000000000000000000000000000600082015250565b600061375e601283612a2c565b915061376982613728565b602082019050919050565b6000602082019050818103600083015261378d81613751565b9050919050565b7f2e00000000000000000000000000000000000000000000000000000000000000600082015250565b60006137ca600183613344565b91506137d582613794565b600182019050919050565b60008190508160005260206000209050919050565b600081546138028161315c565b61380c8186613344565b9450600182166000811461382757600181146138385761386b565b60ff1983168652818601935061386b565b613841856137e0565b60005b8381101561386357815481890152600182019150602081019050613844565b838801955050505b50505092915050565b600061388182858761334f565b915061388c826137bd565b915061389882846137f5565b9150819050949350505050565b60006138b182866137f5565b91506138bd8285613667565b91506138c982846137f5565b9150819050949350505050565b7f7b226e616d65223a202200000000000000000000000000000000000000000000600082015250565b600061390c600a83613344565b9150613917826138d6565b600a82019050919050565b7f222c20226465736372697074696f6e223a20224120646f6d61696e206f6e207460008201527f68652047696e676572206e616d652073657276696365222c2022696d6167652260208201527f3a2022646174613a696d6167652f7376672b786d6c3b6261736536342c000000604082015250565b60006139a4605d83613344565b91506139af82613922565b605d82019050919050565b7f222c226c656e677468223a220000000000000000000000000000000000000000600082015250565b60006139f0600c83613344565b91506139fb826139ba565b600c82019050919050565b7f227d000000000000000000000000000000000000000000000000000000000000600082015250565b6000613a3c600283613344565b9150613a4782613a06565b600282019050919050565b6000613a5d826138ff565b9150613a698286613667565b9150613a7482613997565b9150613a808285613667565b9150613a8b826139e3565b9150613a978284613667565b9150613aa282613a2f565b9150819050949350505050565b7f646174613a6170706c69636174696f6e2f6a736f6e3b6261736536342c000000600082015250565b6000613ae5601d83613344565b9150613af082613aaf565b601d82019050919050565b6000613b0682613ad8565b9150613b128284613667565b915081905092915050565b60006040820190508181036000830152613b378185612a81565b90508181036020830152613b4b8184612a81565b90509392505050565b7f4552433732313a206f70657261746f7220717565727920666f72206e6f6e657860008201527f697374656e7420746f6b656e0000000000000000000000000000000000000000602082015250565b6000613bb0602c83612a2c565b9150613bbb82613b54565b604082019050919050565b60006020820190508181036000830152613bdf81613ba3565b9050919050565b7f4552433732313a207472616e736665722066726f6d20696e636f72726563742060008201527f6f776e6572000000000000000000000000000000000000000000000000000000602082015250565b6000613c42602583612a2c565b9150613c4d82613be6565b604082019050919050565b60006020820190508181036000830152613c7181613c35565b9050919050565b7f4552433732313a207472616e7366657220746f20746865207a65726f2061646460008201527f7265737300000000000000000000000000000000000000000000000000000000602082015250565b6000613cd4602483612a2c565b9150613cdf82613c78565b604082019050919050565b60006020820190508181036000830152613d0381613cc7565b9050919050565b7f4e487b7100000000000000000000000000000000000000000000000000000000600052601160045260246000fd5b6000613d4482612adc565b9150613d4f83612adc565b925082821015613d6257613d61613d0a565b5b828203905092915050565b6000613d7882612adc565b9150613d8383612adc565b9250827fffffffffffffffffffffffffffffffffffffffffffffffffffffffffffffffff03821115613db857613db7613d0a565b5b828201905092915050565b7f4552433732313a20617070726f766520746f2063616c6c657200000000000000600082015250565b6000613df9601983612a2c565b9150613e0482613dc3565b602082019050919050565b60006020820190508181036000830152613e2881613dec565b9050919050565b7f4552433732313a207472616e7366657220746f206e6f6e20455243373231526560008201527f63656976657220696d706c656d656e7465720000000000000000000000000000602082015250565b6000613e8b603283612a2c565b9150613e9682613e2f565b604082019050919050565b60006020820190508181036000830152613eba81613e7e565b9050919050565b7f4552433732314d657461646174613a2055524920717565727920666f72206e6f60008201527f6e6578697374656e7420746f6b656e0000000000000000000000000000000000602082015250565b6000613f1d602f83612a2c565b9150613f2882613ec1565b604082019050919050565b60006020820190508181036000830152613f4c81613f10565b9050919050565b7f4e487b7100000000000000000000000000000000000000000000000000000000600052603260045260246000fd5b6000613f8d82612adc565b91507fffffffffffffffffffffffffffffffffffffffffffffffffffffffffffffffff821415613fc057613fbf613d0a565b5b600182019050919050565b7f4e487b7100000000000000000000000000000000000000000000000000000000600052601260045260246000fd5b600061400582612adc565b915061401083612adc565b9250826140205761401f613fcb565b5b828204905092915050565b600061403682612adc565b915061404183612adc565b92508261405157614050613fcb565b5b828206905092915050565b600060808201905081810360008301526140768187612a81565b9050818103602083015261408a8186612a81565b9050818103604083015261409e8185612a81565b90506140ad6060830184612eb2565b95945050505050565b60006140c182612adc565b91506140cc83612adc565b9250817fffffffffffffffffffffffffffffffffffffffffffffffffffffffffffffffff048311821515161561410557614104613d0a565b5b828202905092915050565b7f45524337323155524953746f726167653a2055524920736574206f66206e6f6e60008201527f6578697374656e7420746f6b656e000000000000000000000000000000000000602082015250565b600061416c602e83612a2c565b915061417782614110565b604082019050919050565b6000602082019050818103600083015261419b8161415f565b9050919050565b600081519050919050565b600082825260208201905092915050565b60006141c9826141a2565b6141d381856141ad565b93506141e3818560208601612a3d565b6141ec81612a70565b840191505092915050565b600060808201905061420c6000830187612b71565b6142196020830186612b71565b6142266040830185612eb2565b818103606083015261423881846141be565b905095945050505050565b60008151905061425281612992565b92915050565b60006020828403121561426e5761426d61295c565b5b600061427c84828501614243565b91505092915050565b7f4552433732313a206d696e7420746f20746865207a65726f2061646472657373600082015250565b60006142bb602083612a2c565b91506142c682614285565b602082019050919050565b600060208201905081810360008301526142ea816142ae565b9050919050565b7f4552433732313a20746f6b656e20616c7265616479206d696e74656400000000600082015250565b6000614327601c83612a2c565b9150614332826142f1565b602082019050919050565b600060208201905081810360008301526143568161431a565b905091905056fe0a2d2d2d2d2d2d2d2d2d2d2d2d2d2d2d2d2d2d2d2d2d2d2d2d2d2d2d2d2d2d2d2d2d2d2d2d2d2d2d2d2d2d2d2d2d2d2d2d2d2d2d2d2d2d2d2d5265676973746572696e672025732e2573206f6e2074686520636f6e7472616374207769746820746f6b656e49442025642d2d2d2d2d2d2d2d2d2d2d2d2d2d2d2d2d2d2d2d2d2d2d2d2d2d2d2d2d2d2d2d2d2d2d2d2d2d2d2d2d2d2d2d2d2d2d2d2d2d2d2d2d2d2d2d0a4142434445464748494a4b4c4d4e4f505152535455565758595a6162636465666768696a6b6c6d6e6f707172737475767778797a303132333435363738392b2fa26469706673582212209347474157658625c31cd85880390749531d276c11a41c17d9d5c7ea2037b05364736f6c634300080a00333c73766720786d6c6e733d22687474703a2f2f7777772e77332e6f72672f323030302f737667222077696474683d2232373022206865696768743d22323730222066696c6c3d226e6f6e65223e3c706174682066696c6c3d2275726c282342292220643d224d302030683237307632373048307a222f3e3c646566733e3c66696c7465722069643d22412220636f6c6f722d696e746572706f6c6174696f6e2d66696c746572733d2273524742222066696c746572556e6974733d227573657253706163654f6e55736522206865696768743d22323730222077696474683d22323730223e3c666544726f70536861646f772064783d2230222064793d22312220737464446576696174696f6e3d22322220666c6f6f642d6f7061636974793d222e323235222077696474683d223230302522206865696768743d2232303025222f3e3c2f66696c7465723e3c2f646566733e3c7061746820643d224d37322e3836332034322e393439632d2e3636382d2e3338372d312e3432362d2e35392d322e3139372d2e3539732d312e3532392e3230342d322e3139372e35396c2d31302e30383120362e3033322d362e383520332e3933342d31302e30383120362e303332632d2e3636382e3338372d312e3432362e35392d322e3139372e3539732d312e3532392d2e3230342d322e3139372d2e35396c2d382e3031332d342e37323161342e353220342e35322030203020312d312e3538392d312e363136632d2e3338342d2e3636352d2e3539342d312e3431382d2e3630382d322e313837762d392e3331632d2e3031332d2e3737352e3138352d312e3533382e3537322d322e32303861342e323520342e323520302030203120312e3632352d312e3539356c372e3838342d342e3539632e3636382d2e33383720312e3432362d2e353920322e3139372d2e353973312e3532392e32303420322e3139372e35396c372e38383420342e353961342e353220342e353220302030203120312e35383920312e363136632e3338342e3636352e35393420312e3431382e36303820322e31383776362e3033326c362e38352d342e303635762d362e303332632e3031332d2e3737352d2e3138352d312e3533382d2e3537322d322e32303861342e323520342e32352030203020302d312e3632352d312e3539354c34312e3435362032342e3539632d2e3636382d2e3338372d312e3432362d2e35392d322e3139372d2e3539732d312e3532392e3230342d322e3139372e35396c2d31342e38363420382e36353561342e323520342e32352030203020302d312e36323520312e353935632d2e3338372e36372d2e35383520312e3433342d2e35373220322e3230387631372e343431632d2e3031332e3737352e31383520312e3533382e35373220322e32303861342e323520342e323520302030203020312e36323520312e3539356c31342e38363420382e363535632e3636382e33383720312e3432362e353920322e3139372e353973312e3532392d2e32303420322e3139372d2e35396c31302e3038312d352e39303120362e38352d342e3036352031302e3038312d352e393031632e3636382d2e33383720312e3432362d2e353920322e3139372d2e353973312e3532392e32303420322e3139372e35396c372e38383420342e353961342e353220342e353220302030203120312e35383920312e363136632e3338342e3636352e35393420312e3431382e36303820322e31383776392e333131632e3031332e3737352d2e31383520312e3533382d2e35373220322e32303861342e323520342e32352030203020312d312e36323520312e3539356c2d372e38383420342e373231632d2e3636382e3338372d312e3432362e35392d322e3139372e3539732d312e3532392d2e3230342d322e3139372d2e35396c2d372e3838342d342e353961342e353220342e35322030203020312d312e3538392d312e363136632d2e3338352d2e3636352d2e3539342d312e3431382d2e3630382d322e313837762d362e3033326c2d362e383520342e30363576362e303332632d2e3031332e3737352e31383520312e3533382e35373220322e32303861342e323520342e323520302030203020312e36323520312e3539356c31342e38363420382e363535632e3636382e33383720312e3432362e353920322e3139372e353973312e3532392d2e32303420322e3139372d2e35396c31342e3836342d382e363535632e3635372d2e33393420312e3230342d2e393520312e3538392d312e363136732e3539342d312e3431382e3630392d322e3138375635352e353338632e3031332d2e3737352d2e3138352d312e3533382d2e3537322d322e32303861342e323520342e32352030203020302d312e3632352d312e3539356c2d31342e3939332d382e3738367a222066696c6c3d2223666666222f3e3c646566733e3c6c696e6561724772616469656e742069643d2242222078313d2230222079313d2230222078323d22323730222079323d2232373022206772616469656e74556e6974733d227573657253706163654f6e557365223e3c73746f702073746f702d636f6c6f723d2223636235656565222f3e3c73746f70206f66667365743d2231222073746f702d636f6c6f723d2223306364376534222073746f702d6f7061636974793d222e3939222f3e3c2f6c696e6561724772616469656e743e3c2f646566733e3c7465787420783d2233322e352220793d223233312220666f6e742d73697a653d223237222066696c6c3d2223666666222066696c7465723d2275726c282341292220666f6e742d66616d696c793d22506c7573204a616b617274612053616e732c44656a6156752053616e732c4e6f746f20436f6c6f7220456d6f6a692c4170706c6520436f6c6f7220456d6f6a692c73616e732d73657269662220666f6e742d7765696768743d22626f6c64223e",
    "linkReferences": {},
    "deployedLinkReferences": {}
}